:020000040800F2
:10000000904301200DC4000815C4000817C400085F
:1000100019C400081BC400081DC40008000000002B
:100020000000000000000000000000001FC40008E5
:1000300021C400080000000023C4000849C80108CA
:1000400027C4000827C4000827C4000827C40008E4
:1000500027C4000827C4000827C4000827C40008D4
:1000600027C4000827C4000827C4000827C40008C4
:1000700027C4000827C4000827C4000827C40008B4
:1000800027C4000827C4000827C4000827C40008A4
:1000900027C4000827C4000827C40008D5C80108E1
:1000A00027C4000827C4000827C4000827C4000884
:1000B0006FC8010827C4000827C4000827C4000827
:1000C00027C4000827C4000827C4000827C4000864
:1000D00027C40008F5C8010827C4000803C901089F
:1000E00027C4000827C4000827C4000827C4000844
:1000F00027C4000827C4000827C4000827C4000834
:1001000027C4000827C4000827C4000827C4000823
:1001100027C4000827C4000827C4000827C4000813
:1001200027C4000827C4000827C4000827C4000803
:1001300027C4000827C4000827C4000827C40008F3
:1001400027C4000827C4000827C4000827C40008E3
:1001500027C4000827C4000827C4000827C40008D3
:1001600027C4000827C4000827C4000827C40008C3
:1001700027C4000827C4000827C4000827C40008B3
:1001800027C4000827C40008DFF80CD000F006F8E8
:100190000048004719C1000890430120064C074D54
:1001A00006E0E06840F0010394E807009847103447
:1001B000AC42F6D3FFF7ECFFE001000800020008B4
:1001C00002E008C8121F08C1002AFAD17047704720
:1001D000002001E001C1121F002AFBD1704700007E
:1001E000000200080000002054010000E657020849
:1001F0003C020008540100203C420100D0010008EC
:1002000011847A030A000918010203040607080989
:1002100002130163FFFF14E0A40245A0E6CD05022E
:100220001B452964091C6829660912040120031D65
:0C023000CDAB22C0033F6E19194401241D
:020000040800F2
:10C0000010B505F0BDFE642010F082FC05F0C7FEFF
:10C01000142010F07DFC05F0C2FE142010F078FC16
:10C0200005F0BDFE142010F073FC05F0B8FE484882
:10C030000021016041608160C160102106F083FC35
:10C04000012805D143A019F0FDFB414806F070FC22
:10C050003F480088A0F52B41CD3909D047A019F001
:10C06000F1FB3B4806F064FC1021394806F07AFCED
:10C0700037488368828881784AA019F0E3FB10F082
:10C0800056FC0446214652A019F0DCFB304881786A
:10C09000002005F0A7FEFF21012005F0A3FEFF21EF
:10C0A000022005F09FFEFF21032005F09BFE0220E9
:10C0B00010F02FFE032010F034FEC82010F028FCF2
:10C0C000022010F02EFE032010F023FEC82010F0F6
:10C0D0001FFC022010F01DFE032010F022FEC820DD
:10C0E00010F016FC022010F01CFE032010F011FED0
:10C0F000C82010F00DFC022010F00BFE032010F001
:10C1000010FEC82010F004FC022010F00AFE0320EC
:10C1100010F0FFFD10BD704704F02EFE06F021FA6E
:10C1200010F07AFD18F06FFE18F008FD19F031F8E4
:10C1300000F07EF905F06AF8FFF762FF28A019F019
:10C1400081FB00202D49087001E006F088F9FCE72A
:10C15000CC14002072656164207265636F72642084
:10C16000706172616D206661696C2C207265736507
:10C17000742074686F73650D0A0000007265636F48
:10C18000726420706172616D20666C6167206572F7
:10C19000726F722C2072657365742074686F73659A
:10C1A0000D0A0000506172616D3A207762633D258F
:10C1B000642C20616464737465703D25642C206177
:10C1C000646470726573733D25303130640D0A000C
:10C1D000776263207469636B733D25640A00000015
:10C1E0000D0A202E2E2E2E2E2E2052656164796986
:10C1F0006E67202E2E2E2E2E2E0D0A003C000020C3
:10C200000CB50020019000907548006840F4803023
:10C210007349086000BF7248006800F40030009065
:10C220000198401C0190009818B90198B0F5A04FF2
:10C23000F1D16B48006810F4003F02D0012000905B
:10C2400001E0002000900098012845D1644840306A
:10C25000006840F0805062494031086061480068E1
:10C2600040F440405F4908605D48083000685C4920
:10C27000083108600846006840F40040086008463D
:10C28000006840F4A05008605748091F0860081F64
:10C29000006840F08070091F086000BF50480068C7
:10C2A00010F0007FFAD040F20570504908604C4809
:10C2B0000830006820F0030049490831086008464A
:10C2C000006840F00200086000BF45480830006880
:10C2D00000F00C000828F8D10CBD10B544480068E7
:10C2E00040F47000424908603D48006840F0010099
:10C2F0003B49086000203A49083108603848006826
:10C300003C490840364908603B48091D0860081F41
:10C31000006820F48020091F0860002030490C319B
:10C320000860FFF76DFF4FF0006031498039086009
:10C3300010BD70B500200022022300240221284DE8
:10C3400008352D6805F00C0020B1042806D0082817
:10C3500034D107E0294D2A4E356033E0294D284E6F
:10C3600035602FE01E4D2D1D2D68C5F380541C4DEA
:10C370002D1D2D6805F03F0154B1224DB5FBF1F59F
:10C38000174E361D3668C6F3881605FB06F209E01F
:10C390001A4DB5FBF1F5124E361D3668C6F38816F8
:10C3A00005FB06F20E4D2D1D2D68C5F301456D1CD4
:10C3B0006B00B2FBF3F5124E356003E00F4D104EEB
:10C3C000356000BF00BF064D08352D68C5F3031565
:10C3D0000D4E705D0A4D2D68C540094E356070BD2B
:10C3E000003802400070004008544007003C024002
:10C3F00088ED00E0FFFFF6FE103000240024F4007A
:10C400000000002000127A00040000200648804747
:10C4100006480047FEE7FEE7FEE7FEE7FEE7FEE729
:10C42000FEE7FEE7FEE7FEE7DBC200088901000841
:10C4300000206449086064490860644908704870D5
:10C440008870C8708860C860086148616049087079
:10C4500048708870C8705F490870487000215D4856
:10C46000817000205C49087048708870C87008713D
:10C4700048718871C871087248728872C8720873EE
:10C4800048738873C873087448748874C8740875CE
:10C490000F204875422088754020C8750020087616
:10C4A0000F204876422088764020C876002081F808
:10C4B000240081F82500C82081F82600012081F899
:10C4C00027002C2081F82800002081F829001E2058
:10C4D00081F82A00002081F82B0081F82C0081F8D7
:10C4E0002D0081F82E0081F82F00042081F8300003
:10C4F000B02081F83100002038490870C8204880F9
:10C50000002008714FF496713448C18000207047B4
:10C510000020704730B503460C4600210022294810
:10C52000006808B9012000E0002010B10020208040
:10C5300030BD0022002123E0294850F82100214D80
:10C540002D6828421AD0274830F81100050A03F850
:10C550002250244810F811509000401C1D542248CD
:10C5600030F81100050A9000801C1D541E4810F878
:10C5700011509000C01C1D54501C82B2481C81B246
:10C580002029D9DB228000200E4D286000BFCFE794
:10C590000246202A01DB01207047114850F8220092
:10C5A000084B1B681843074B18600F4820F81210FF
:10C5B0000020F1E70348006808B900207047012017
:10C5C000FCE7000024000020280000205401002087
:10C5D0001400002018000020700100201C00002022
:10C5E000F45C0208745D0208A6010020FE480068A1
:10C5F00070472DE9FF410746002410F0B2F985B2DB
:10C600002A122146641C0DF80120EAB22146641C5E
:10C610000DF8012010F0ADF985B22A122146641CF4
:10C620000DF80120EAB22146641C0DF801203A12EF
:10C630002146641C0DF80120FAB22146641C0DF855
:10C640000120FFF7D3FF0646320E2146641C0DF889
:10C650000120C6F307422046611CCCB20DF8002031
:10C66000C6F307222046611CCCB20DF80020F2B2BE
:10C670002046611CCCB20DF8002000BF10F079F903
:10C68000401B80B23228F9DB23466A464FF4801102
:10C69000532004F0E3FC00BF10F06BF9401B80B2A4
:10C6A0003C28F9DB23466A464FF48011532004F0FE
:10C6B000D5FC00BF10F05DF9401B80B24628F9DBC5
:10C6C00023466A464FF48011532004F0C7FCBDE8AE
:10C6D000FF812DE9F8430546884616460020009064
:10C6E0000027F2B239467F1C0DF8012010F01FF927
:10C6F0000446012D27D100BF10F019F9001B80B2AC
:10C700003228F9DB3B466A464146532004F0A6FC3A
:10C7100000BF10F00CF9001B80B23C28F9DB3B464F
:10C720006A464146532004F099FC00BF10F0FFF820
:10C73000001B80B24628F9DB3B466A46414653203F
:10C7400004F08CFC28E0032D26D100BF10F0EFF898
:10C75000001B80B23228F9DB3B466A464146442042
:10C7600004F07CFC00BF10F0E2F8001B80B23C2813
:10C77000F9DB3B466A464146442004F06FFC00BFAB
:10C7800010F0D5F8001B80B24628F9DB3B466A461C
:10C790004146442004F062FCBDE8F8832DE9F843EB
:10C7A0000546884616460027C6F3072239467F1CF1
:10C7B0000DF80120F2B239467F1C0DF8012010F06F
:10C7C000B6F80446012D27D100BF10F0B0F8001BC9
:10C7D00080B23228F9DB3B466A464146532004F0DA
:10C7E0003DFC00BF10F0A3F8001B80B23C28F9DB31
:10C7F0003B466A464146532004F030FC00BF10F02F
:10C8000096F8001B80B24628F9DB3B466A46414653
:10C81000532004F023FC28E0032D26D100BF10F0A4
:10C8200086F8001B80B23228F9DB3B466A46414657
:10C83000442004F013FC00BF10F079F8001B80B214
:10C840003C28F9DB3B466A464146442004F006FC9E
:10C8500000BF10F06CF8001B80B24628F9DB3B46A5
:10C860006A464146442004F0F9FBBDE8F8832DE90F
:10C87000FC4107468846154600200090019000269E
:10C880002A0E3146761C0DF80120C5F307423146C9
:10C89000761C0DF80120C5F307223146761C0DF8F1
:10C8A0000120EAB23146761C0DF8012010F03FF865
:10C8B0000446012F27D100BF10F039F8001B80B2C9
:10C8C0003228F9DB33466A464146532004F0C6FB62
:10C8D00000BF10F02CF8001B80B23C28F9DB334677
:10C8E0006A464146532004F0B9FB00BF10F01FF820
:10C8F000001B80B24628F9DB33466A464146532086
:10C9000004F0ACFB28E0032F26D100BF10F00FF895
:10C91000001B80B23228F9DB33466A464146442088
:10C9200004F09CFB00BF10F002F8001B80B23C2812
:10C93000F9DB33466A464146442004F08FFB00BFD2
:10C940000FF0F5FF001B80B24628F9DB33466A463C
:10C950004146442004F082FBBDE8FC812DE9F0470C
:10C960000446884615461E46B146AA460FF0DFFF2C
:10C970000746012C0DD100BF0FF0D9FFC01B80B2BC
:10C980003228F9DB4B4652464146532004F066FB01
:10C990000EE0032C0CD100BF0FF0C9FFC01B80B20A
:10C9A0003228F9DB4B4652464146442004F056FB00
:10C9B000BDE8F0872DE9FF4105460E4600242146DB
:10C9C000641C0DF801502146641C0DF801600FF045
:10C9D000D0FF87B223466A460521532004F03EFB70
:10C9E00000BF0FF0C6FF01E030000020C01B80B286
:10C9F0000A28F6DB23466A460521532004F02EFB65
:10CA000000BF0FF0B6FFC01B80B21428F9DB23462D
:10CA10006A460521532004F021FBBDE8FF812DE982
:10CA2000FF4105460E46174600242146641C0DF8BA
:10CA300001502146641C0DF801602146641C0DF86C
:10CA400001700FF096FF1FFA80F823466A46052111
:10CA5000532004F003FB00BF0FF08BFFA0EB080096
:10CA600080B20A28F8DB23466A460521532004F0E9
:10CA7000F5FA00BF0FF07DFFA0EB080080B214288C
:10CA8000F8DB23466A460521532004F0E7FABDE8A7
:10CA9000FF812DE9FF4105460E4600273212394637
:10CAA0007F1C0DF80120F2B239467F1C0DF80120E1
:10CAB0000FF05FFF84B215BB3B466A46F905532071
:10CAC00004F0CCFA00BF0FF054FF001B80B20A281C
:10CAD000F9DB3B466A464FF08071532004F0BEFA02
:10CAE00000BF0FF046FF001B80B21428F9DB3B4665
:10CAF0006A464FF08071532004F0B0FA21E0012D16
:10CB00001FD13B466A46FE49532004F0A7FA00BFF6
:10CB10000FF02FFF001B80B20A28F9DB3B466A4664
:10CB2000F749532004F09AFA00BF0FF022FF001BD0
:10CB300080B21428F9DB3B466A46F149532004F0E1
:10CB40008DFABDE8FF81EF480068401CED490860A0
:10CB50007047EC490860EC490860EC490860704790
:10CB60002DE9F8430446884600260027E078009027
:10CB7000A37862782178E6A018F064FEE07900904E
:10CB8000A37962792179EBA018F05CFEE07A00903D
:10CB9000A37A627A217AECA018F054FEE379A279A4
:10CBA0006179207904F012F90646B6F5E16F06D1F5
:10CBB000257AFF2D02D10120BDE8F88300E000BFF7
:10CBC00000BF3846F8E770B504460025002604E0AB
:10CBD00005F078F90544701CC6B2A642F8DB95FB57
:10CBE000F4F5284670BD2DE9F84F04460D460026A1
:10CBF000B246B0460020C3490860C44908600FF03F
:10CC0000B8FE83460FF0ADFE5946009005F007FCD4
:10CC100005B9ACB14FF416706043B0FBF5F8B8F14C
:10CC2000000F09DACDA018F00DFE0020B54908600C
:10CC3000B6490860002500244146CCA018F002FE49
:10CC400005B11CB90A200FF063FE3EE000200FF092
:10CC500093FE00200FF088FE0FF08BFE0646B246D2
:10CC60001CE0002702E005F09BFB7F1C042FFAD399
:10CC70000FF07FFE0646304617F0B7FF002708E0AA
:10CC80004FF0000901E009F10109B9F1A80FFAD349
:10CC90007F1C4745F4D3304617F0A7FF0AEB04008A
:10CCA000B042DED80020FFF7A4FC984803689548FE
:10CCB00002683146AFA018F0C5FD00209149086018
:10CCC00092490860B1A018F0BDFDBDE8F88F70B5BD
:10CCD000012005F0C1F8054642F2107105FB01F094
:10CCE000C11700EB11510C13204670BD2DE9F04126
:10CCF00004460026002508E0FFF7E9FF87B2A742B7
:10CD000001D8701CC6B2681CC5B2052DF4DB032E19
:10CD100002DB0020BDE8F0810120FBE72DE9F043B4
:10CD200089B007460E460124FF200890FE20079098
:10CD3000FF200690FE200590002004900025029020
:10CD400003909548007800284AD1012004F01FFE86
:10CD500060B9012005F096F905904FF4FA60FFF7ED
:10CD6000C5FF07908DA018F06DFD39E0042228461C
:10CD7000691CCDB202A90A5402222846691CCDB210
:10CD800002A90A54601C420E2846691CCDB202A9B1
:10CD90000A54601C4008C0F307422846691CCDB203
:10CDA00002A90A54601C4008C0F307222846691CE7
:10CDB000CDB202A90A54601CC0F347022846691C80
:10CDC000CDB202A90A542B4602AA81490120FFF7DD
:10CDD000C5FD00257FA018F035FD09B0BDE8F08342
:10CDE000012450E26C480078012873D104F0CFFD93
:10CDF000F0B9012005F046F906904FF4FA60FFF70C
:10CE000075FF08909DF814009DF81810CDE90010EA
:10CE1000601C41089DF81C309DF82020794818F0CE
:10CE200011FD9DF8180005909DF82000079044E042
:10CE300004222846691CCDB202A90A5402222846BF
:10CE4000691CCDB202A90A54601C420E2846691C16
:10CE5000CDB202A90A54601C4008C0F3074228461C
:10CE6000691CCDB202A90A54601C4008C0F3072215
:10CE70002846691CCDB202A90A54601CC0F34702BF
:10CE80002846691CCDB202A90A542B4602AA504971
:10CE90000120FFF763FD00259DF814009DF8181090
:10CEA000CDE90010601C41089DF81C309DF8202041
:10CEB0005448683018F0C6FC8FE70FF05AFD8046E2
:10CEC0000FF04FFD8146414605F0A9FA012814D123
:10CED000DDE1FFE7304800780228F8D1012004F0B6
:10CEE000BDFA00280AD1C8200FF012FD012005F07C
:10CEF000C9F806904FF4FA6086E0B7E165E10000FA
:10CF00000100000130000020340000203800002023
:10CF10000D0A4D53472048616E646C696E673A256F
:10CF2000303258253032582530325825303258208A
:10CF30000000000025303258253032582530325854
:10CF40002530325820000000253032582530325824
:10CF500025303258253032580D0A00007573203CB8
:10CF600020302C20657869740D0A000075733D250A
:10CF7000640D0A000D0A743D25642C20733D256460
:10CF80002C20663D25640D0A0000000053656E6488
:10CF9000204F7665720D0A005401002050617274B2
:10CFA0005F546573745F5742435F416E645F4368CB
:10CFB00065636B5F456C65633A206D6F746F206FBE
:10CFC000757420737563636573730D0A0000000048
:10CFD00008070001506172745F546573745F5742B3
:10CFE000435F416E645F436865636B5F456C656377
:10CFF0003A206D6F746F206F7574206572726F7256
:10D0000000000000BC5D0208FFF770FE08900020E1
:10D0100004909DF814009DF81810884210D1032048
:10D0200004909DF814009DF81810CDE90010601CC4
:10D0300041089DF81C309DF82020FE4818F002FCA5
:10D040009DF81C009DF82010884228D19DF8100002
:10D05000032812D1052004909DF814009DF81810A3
:10D06000CDE90010601C41089DF81C309DF820207F
:10D07000F048783018F0E6FB11E0042004909DF8A9
:10D0800014009DF81810CDE90010601C41089DF8AF
:10D090001C309DF82020E748F83018F0D3FB9DF8AD
:10D0A0001000E8BB04222846691CCDB202A90A542C
:10D0B0009DF810202846691CCDB202A90A54601CB4
:10D0C000420E2846691CCDB202A90A54601C4008D1
:10D0D000C0F307422846691CCDB202A90A54601C5D
:10D0E0004008C0F307222846691CCDB202A90A54A1
:10D0F000601CC0F347022846691CCDB202A90A543D
:10D100002B4602AACC490120FFF728FC00259DF8F8
:10D1100014009DF81810CDE90010601C410800E0D3
:10D1200007E09DF81C309DF82020C44818F08AFBC9
:10D1300044E004222846691CCDB202A90A549DF895
:10D1400010202846691CCDB202A90A54601C420E68
:10D150002846691CCDB202A90A54601C4008C0F3DD
:10D1600007422846691CCDB202A90A54601C400837
:10D17000C0F307222946681CC5B202A84254601CAD
:10D18000C0F347022846691CCDB202A90A542B46B7
:10D1900002AAA9490120FFF7E1FB00259DF8140030
:10D1A0009DF81810CDE90010601C41089DF81C3056
:10D1B0009DF82020A148743018F044FB9DF8180019
:10D1C00005909DF82000079044E004222846691C41
:10D1D000CDB202A90A5402222846691CCDB202A986
:10D1E0000A54601C420E2946681CC5B202A842546B
:10D1F000601C4008C0F307422846691CCDB202A952
:10D200000A54601C4008C0F307222846691CCDB2AE
:10D2100002A90A54601CC0F347022946681CC5B223
:10D2200002A842542B4602AA83490120FFF796FB2D
:10D2300000259DF814009DF81810CDE90010601C21
:10D2400041089DF81C309DF820207A48683818F075
:10D25000F9FAC2E50FF08DFB80460FF082FB8146A4
:10D26000414605F0DCF8012800D110E00FF081FB09
:10D2700080460FF076FB8146414605F0D0F8012844
:10D2800000D104E0641CB4EB460F7FF6ABAD00BFE9
:10D2900061086BA018F0D6FA00BF9EE530B585B0E6
:10D2A000002004900390029001900090012104F06E
:10D2B000F9FA002004F0C5FA012004F0C2FA0520B2
:10D2C000FFF781FC04900FF032FB0390039802906B
:10D2D00068488368DDE90220811A67A0049A18F083
:10D2E000B1FA73490498884270DA012142F2107051
:10D2F00004F0D8FA002004F01BFB012004F0A1FA8E
:10D300000FF015FB039003980190039800902FE015
:10D310000FF00DFB039000990398401A0A281DD3C3
:10D32000039800900520FFF74EFC04906049049894
:10D3300088420ADB002004F084FA012004F081FA1C
:10D340000121002004F0AEFA19E04A488368DDE9C3
:10D350000220811A57A0049A18F074FA0FF009FB02
:10D3600004460FF0FEFA05460322214604F05DFF55
:10D3700043F698220199114403988842C8D900BF06
:10D38000002004F05EFA012004F05BFA0121002085
:10D3900004F088FA43F698220199114403988842D0
:10D3A00017D90FF0C4FA039032488368DDE90220F0
:10D3B000811A4EA0049A18F045FA01225A491046E3
:10D3C000FFF7ECF9049805B030BDFFE70FF0AFFAB6
:10D3D000039028488368DDE90220811A53A0049A4B
:10D3E00018F030FA002250490120FFF7D7F90498CD
:10D3F000E9E72DE9FC5F0746FFF750FF054640F2DD
:10D40000DC500FF085FAFFF749FF05464FF47A70BC
:10D410000FF07EFA00250520FFF7D5FB05460FF03B
:10D4200086FA0446A046A14612482A462146836849
:10D430009CE000008C5E020808070001F85F02080B
:10D44000506172745F546573745F5742435F416EFD
:10D45000645F436865636B5F456C65633A20546540
:10D4600073742046696E69736865642C20693D2574
:10D47000640D0A00CC1400204275696C642073743A
:10D480006172743A207469636B3D253038642C20D6
:10D4900070726573733D25303130642C2061646493
:10D4A00070726573733D25303130640D0A000000E1
:10D4B0008085B50D4275696C64696E672050726530
:10D4C0007373207469636B3D253038642C2070724F
:10D4D0006573733D25303130642C20616464707253
:10D4E0006573733D25303130640D0A004275696CF7
:10D4F00064205072657373204661696C3A207469C8
:10D50000636B3D253038642C2070726573733D2544
:10D51000303130642C2061646470726573733D2512
:10D52000303130640D0A0000030000014275696C5F
:10D530006420707265737320737563636573733AE7
:10D54000207469636B3D253038642C2070726573DC
:10D55000733D25303130642C2061646470726573D2
:10D56000733D25303130640D0A000000F6A018F03C
:10D5700069F9022F05D1002004F063F9012004F0BD
:10D58000D7F92CE00FF0D3F90446A4EB09000A28E0
:10D5900025D3A14600260520FFF715FB0546F948CF
:10D5A0002844864203DCF748281AB04209DDF648D1
:10D5B00080682B46324621460090F44818F042F924
:10D5C00012E0022F0BD10FF0D4F982460FF0C9F907
:10D5D0008346514604F023FF012800D104E044F6BD
:10D5E000206040448442CDD900BF022F05D10020E5
:10D5F00004F027F9012004F024F944F620604044A7
:10D60000844213D20122E2491046FFF7C7F8DE48F0
:10D610008068A91B2B463246CDE900102146DB4825
:10D620004C3018F00FF90120BDE8FC9F0022D849CA
:10D630000120FFF7B3F8D4488068A91B2B46324677
:10D64000CDE900102146D148A43018F0FBF80020A5
:10D65000EAE72DE9FC4707460E4601250024002095
:10D6600000900190CB480078002842D1012004F0BE
:10D670008EF928B9681C4108C7A018F0E3F838E013
:10D6800003222046611CCCB20DF800200222204665
:10D69000611CCCB20DF80020681C420E2046611CB3
:10D6A000CCB20DF80020681C4008C0F307422046A9
:10D6B000611CCCB20DF80020681C4008C0F30722A2
:10D6C0002046611CCCB20DF80020681CC0F3470254
:10D6D0002046611CCCB20DF8002023466A46BA49A8
:10D6E0000120FFF73BF90024B8A018F0ABF8BDE823
:10D6F000FC87012547E2A748007801284ED104F0B5
:10D7000046F928B9681C4108A3A018F09BF839E035
:10D7100003222046611CCCB20DF8002002222046D4
:10D72000611CCCB20DF80020681C420E2146601C22
:10D73000C4B20DF80120681C4008C0F3074220461F
:10D74000611CCCB20DF80020681C4008C0F3072211
:10D750002046611CCCB20DF80020681CC0F34702C3
:10D760002046611CCCB20DF8002023466A4696493B
:10D770000120FFF7F3F80024681C41089DA018F071
:10D7800061F8B4E70FF0F5F880460FF0EAF881464B
:10D79000414604F044FE01287ED1F8E17D4800783E
:10D7A00002287AD1012003F059FE00287FD1681C9D
:10D7B00041089BA018F046F80220FFF71AFE012846
:10D7C00038D103222046611CCCB20DF80020012282
:10D7D0002046611CCCB20DF80020681C420E204689
:10D7E000611CCCB20DF80020681C4008C0F3074251
:10D7F0002046611CCCB20DF80020681C4008C0F324
:10D8000007222146601CC4B20DF80120681CC0F339
:10D8100047022046611CCCB20DF8002023466A4620
:10D8200069490120FFF79AF80024690886A018F0DA
:10D8300009F876E003222046611CCCB20DF80020E6
:10D8400000222046611CCCB20DF80020681C420E5C
:10D850002046611CCCB20DF80020681C4008C0F3C3
:10D8600007422046611CCCB20DF80020681C40081D
:10D87000C0F307222046611CCCB20DF80020681CC2
:10D88000C0F347022146601CC4B20DF801202346B4
:10D890006A464D49012002E054E02DE107E0FFF720
:10D8A0005DF80024690872A017F0CCFF39E003226C
:10D8B0002046611CCCB20DF8002002222046611CDB
:10D8C000CCB20DF80020681C420E2046611CCCB280
:10D8D0000DF80020681C4008C0F307422046611C78
:10D8E000CCB20DF80020681C4008C0F30722204687
:10D8F000611CCCB20DF80020681CC0F34702204622
:10D90000611CCCB20DF8002023466A462E49012046
:10D91000FFF724F80024681C41085FA017F092FF6D
:10D92000E5E6681C410867A017F08CFF0FF021F8AE
:10D9300080460FF016F88146414604F070FD01283C
:10D9400000D124E112E100004169724C69676874FA
:10D950002073746172743A207469636B733D25306F
:10D9600038642C2070726573733D25303130642C1F
:10D970002061646470726573733D25303130640DCD
:10D980000A000000002D3101CC140020E0600208E4
:10D990000400000154010020506172745F546573EB
:10D9A000745F4169724661756365743A206D6F7486
:10D9B0006F206F757420737563636573732C2069B2
:10D9C0003D25640D0A0000000807000150617274D3
:10D9D0005F546573745F4169724661756365743A3B
:10D9E000206D6F746F206F7574206572726F720D89
:10D9F0000A000000506172745F546573745F41697E
:10DA0000724661756365743A206D6F746F206F752F
:10DA100074206572726F722C20693D25640D0A00B6
:10DA2000506172745F546573745F416972466175C9
:10DA30006365743A206D6F746F20696E2C20693DA8
:10DA400025640D0A00000000506172745F54657314
:10DA5000745F4169724661756365743A20666169F5
:10DA60006C7572652C20693D25640D0A000000006C
:10DA7000506172745F546573745F41697246617579
:10DA80006365743A20737563636573732C20693D15
:10DA900025640D0A00000000506172745F546573C4
:10DAA000745F4169724661756365743A206D6F7485
:10DAB0006F20696E206572726F722C20693D25643B
:10DAC0000D0A0000506172745F546573745F4169A0
:10DAD000724661756365743A20616674657220618F
:10DAE00069726C6967687420636865636B2C206970
:10DAF0003D25640D0A000000681C4108FEA017F0D7
:10DB0000A1FE03222046611CCCB20DF800200122A8
:10DB10002146601CC4B20DF80120681C420E20464C
:10DB2000611CCCB20DF80020681C4008C0F307420D
:10DB30002046611CCCB20DF80020681C4008C0F3E0
:10DB400007222046611CCCB20DF80020681CC0F3EF
:10DB500047022046611CCCB20DF800200024234669
:10DB60006A46F2490120FEF7F9FEC0E50EF001FF1A
:10DB700080460EF0F6FE8146414604F050FC012836
:10DB800000D104E06D1CB5EB460F7FF6B4AD00BFCD
:10DB90006908E7A017F056FE00BFA8E52DE9FC5F75
:10DBA00081460F460125FF264FF0FE080024002085
:10DBB00000900190E9480078002847D1012003F047
:10DBC000E6FE48B9012004F05DFA8046681C410871
:10DBD000E3A017F037FE39E002222046611CCCB2E8
:10DBE0000DF800202046611CCCB20DF80020681C06
:10DBF000420E2046611CCCB20DF80020681C400883
:10DC0000C0F307422046611CCCB20DF80020681C0E
:10DC10004008C0F307222046611CCCB20DF800205A
:10DC2000681CC0F347022046611CCCB20DF80020EE
:10DC300023466A46BD490120FEF790FE0024681C79
:10DC40004108D3A017F0FEFDBDE8FC9F012526E2A8
:10DC5000C2480078012854D103F099FE60B9012030
:10DC600004F010FA0646681C430842463146D4A028
:10DC700017F0E8FDB04638E002222046611CCCB225
:10DC80000DF800202046611CCCB20DF80020681C65
:10DC9000420E2046611CCCB20DF80020681C4008E2
:10DCA000C0F307422046611CCCB20DF80020681C6E
:10DCB0004008C0F307222046611CCCB20DF80020BA
:10DCC000681CC0F347022146601CC4B20DF8012055
:10DCD00023466A4695490120FEF740FE0024681C51
:10DCE0004108ABA017F0AEFDAEE70EF042FE824653
:10DCF0000EF037FE8346514604F091FB01287DD19A
:10DD0000D1E196480078022879D1012003F0A6FBE2
:10DD1000002875D1012004F0B5F90646B0453BD185
:10DD200002222046611CCCB20DF8002001222046C0
:10DD3000611CCCB20DF80020681C420E2046611C0C
:10DD4000CCB20DF80020681C4008C0F30742214601
:10DD5000601CC4B20DF80120681C4008C0F3072203
:10DD60002046611CCCB20DF80020681CC0F34702AD
:10DD70002046611CCCB20DF8002023466A466B4950
:10DD80000120FEF7EBFD0024681C430842463146A3
:10DD9000994817F057FD3EE002222146601CC4B2AC
:10DDA0000DF8012000222046611CCCB20DF80020A5
:10DDB000681C420E2046611CCCB20DF80020681C85
:10DDC0004008C0F307422046611CCCB20DF8002089
:10DDD000681C4008C0F307222046611CCCB20DF835
:10DDE0000020681CC0F347022046611CCCB20DF82D
:10DDF000002023466A464D49012002E07AE051E0C6
:10DE00000BE0FEF7ABFD0024681C43084246314698
:10DE10007AA017F017FDB04638E002222046611CB8
:10DE2000CCB20DF800202046611CCCB20DF80020C9
:10DE3000681C420E2146601CC4B20DF80120681C0B
:10DE40004008C0F307422046611CCCB20DF8002008
:10DE5000681C4008C0F307222046611CCCB20DF8B4
:10DE60000020681CC0F347022046611CCCB20DF8AC
:10DE7000002023466A462D490120FEF76FFD00244D
:10DE8000681C41086BA017F0DDFCDDE60EF071FDAB
:10DE900082460EF066FD8346514604F0C0FA012822
:10DEA00028D100E102222046611CCCB20DF80020EE
:10DEB0002046611CCCB20DF80020681C420E2046A2
:10DEC000611CCCB20DF80020681C4008C0F307426A
:10DED0002046611CCCB20DF80020681C4008C0F33D
:10DEE00007222046611CCCB20DF80020681CC0F34C
:10DEF0004702B5E0C6E00000506172745F5465737C
:10DF0000745F4169724661756365743A206D6F7420
:10DF10006F20706F736974696F6E206572726F72B3
:10DF20002C20693D25640D0A00000000080700014F
:10DF3000506172745F546573745F416972466175B4
:10DF40006365743A20546573742046696E6973681A
:10DF500065642C20693D25640D0A000054010020F1
:10DF6000506172745F546573745F436865636B5F7F
:10DF7000456C65633A206D6F746F206F7574207304
:10DF80007563636573732C20693D25640D0A000079
:10DF9000506172745F546573745F436865636B5F4F
:10DFA000456C65633A206D6F746F206F75742065E2
:10DFB00072726F722C20693D25640D0A000000000A
:10DFC000506172745F546573745F436865636B5F1F
:10DFD000456C65633A206D6F746F206F75742C54B7
:10DFE000656D703D25642C20466C61673D25642C71
:10DFF00020693D25640D0A00E061020850617274D9
:10E000005F546573745F436865636B5F456C6563FC
:10E010003A206D6F746F20696E2C54656D703D25CC
:10E02000642C20466C61673D25642C20693D256485
:10E030000D0A0000506172745F546573745F436829
:10E0400065636B5F456C65633A206D6F746F206923
:10E050006E206572726F722C20693D25640D0A0076
:10E060002046611CCCB20DF8002023466A46F249D6
:10E070000120FEF773FC0024681C4108EFA017F094
:10E08000E1FBE1E50EF075FC82460EF06AFC83468A
:10E09000514604F0C4F9012800D104E06D1CB5EB31
:10E0A000470F7FF6D5AD00BF6908F0A017F0CAFB97
:10E0B00000BFC9E52DE9FC5F81460F460125FF261B
:10E0C0004FF0FE080024002000900190F2480078F4
:10E0D000002846D1012003F05AFC40B94FF4FA6001
:10E0E000FEF704FE8046EDA017F0ACFB39E00122FC
:10E0F0002046611CCCB20DF8002002222046611C93
:10E10000CCB20DF80020681C420E2046611CCCB237
:10E110000DF80020681C4008C0F307422046611C2F
:10E12000CCB20DF80020681C4008C0F3072220463E
:10E13000611CCCB20DF80020681CC0F347022046D9
:10E14000611CCCB20DF8002023466A46BA49012072
:10E15000FEF704FC00246908DAA017F073FBBDE8A1
:10E16000FC9F012509E2CC480078012856D103F034
:10E170000EFC68B94FF4FA60FEF7B8FD0646681C5D
:10E18000430842463146DAA017F05CFBB04639E05E
:10E1900001222046611CCCB20DF80020022220464C
:10E1A000611CCCB20DF80020681C420E2046611C98
:10E1B000CCB20DF80020681C4008C0F3074220468E
:10E1C000611CCCB20DF80020681C4008C0F3072287
:10E1D0002046611CCCB20DF80020681CC0F3470239
:10E1E0002046611CCCB20DF8002023466A469249B5
:10E1F0000120FEF7B3FB0024681C4108B1A017F012
:10E2000021FBACE70EF0B5FB82460EF0AAFB83467D
:10E21000514604F004F901287ED1B2E19E4800780D
:10E2200002287AD1012003F019F9002876D1C820FC
:10E230000EF06EFB4FF4FA60FEF758FD0646B0454F
:10E240003AD101222046611CCCB20DF800202046B4
:10E25000611CCCB20DF80020681C420E2046611CE7
:10E26000CCB20DF80020681C4008C0F307422046DD
:10E27000611CCCB20DF80020681C4008C0F30722D6
:10E280002046611CCCB20DF80020681CC0F3470288
:10E290002146601CC4B20DF8012023466A46664937
:10E2A0000120FEF75BFB0024681C43084246314610
:10E2B0009D4817F0C7FA3FE001222046611CCCB20E
:10E2C0000DF8002000222046611CCCB20DF8002081
:10E2D000681C420E2046611CCCB20DF80020681C60
:10E2E0004008C0F307422046611CCCB20DF8002064
:10E2F000681C4008C0F307222046611CCCB20DF810
:10E300000020681CC0F347022146601CC4B20DF80F
:10E31000012023466A4602E08DE055E00EE04649C2
:10E320000120FEF71BFB0024681C430842463146CF
:10E330007D48443017F086FAB04639E00122214684
:10E34000601CC4B20DF8012002222046611CCCB230
:10E350000DF80020681C420E2046611CCCB20DF85E
:10E360000020681C4008C0F307422046611CCCB264
:10E370000DF80020681C4008C0F307222046611CED
:10E38000CCB20DF80020681CC0F347022046611C87
:10E39000CCB20DF8002023466A4627490120FEF73B
:10E3A000DDFA0024681C410860A017F04BFAD6E69D
:10E3B0000EF0DFFA82460EF0D4FA8346514604F09E
:10E3C0002EF8012837D1DCE001222046611CCCB2B6
:10E3D0000DF8002002222046611CCCB20DF800206E
:10E3E000681C420E2046611CCCB20DF80020681C4F
:10E3F0004008C0F307422046611CCCB20DF8002053
:10E40000681C4008C0F307222046611CCCB20DF8FE
:10E410000020681CC0F347022046611CCCB20DF8F6
:10E42000002023466A4604490120FEF797FA00249B
:10E43000681C410890E093E0080700015061727485
:10E440005F546573745F436865636B5F456C6563B8
:10E450003A20706F736974696F6E206572726F72A3
:10E460002C20693D25640D0A000000005061727483
:10E470005F546573745F436865636B5F456C656388
:10E480003A20546573742046696E69736865642C1C
:10E4900020693D25640D0A0054010020506172740A
:10E4A0005F546573745F5742435F456C65633A2000
:10E4B0006D6F746F206F757420737563636573730C
:10E4C0000D0A0000506172745F546573745F5742A7
:10E4D000435F456C65633A206D6F746F206F757490
:10E4E000206572726F722C20693D25640D0A000050
:10E4F000506172745F546573745F5742435F456C3B
:10E5000065633A206D6F746F206F75742C54656D60
:10E51000703D25642C20466C61673D25642C206984
:10E520003D25640D0A0000002462020850617274E7
:10E530005F546573745F5742435F456C65633A206F
:10E540006D6F746F20696E206572726F722C206916
:10E550003D25640D0A000000FAA017F073F9FEE5EE
:10E560000EF007FA82460EF0FCF98346514603F09E
:10E5700056FF012800D104E06D1CB5EB470F7FF674
:10E58000F2AD00BF6908FAA017F05CF900BFE6E53C
:10E590002DE9FC4707460E46012500240020009087
:10E5A0000190FE480078002842D1012003F0EFF9E5
:10E5B00018B9FBA017F046F93AE000222046611C8A
:10E5C000CCB20DF8002001222046611CCCB20DF81F
:10E5D0000020681C420E2046611CCCB20DF80020C1
:10E5E000681C4008C0F307422046611CCCB20DF8FD
:10E5F0000020681C4008C0F307222046611CCCB2F2
:10E600000DF80020681CC0F347022046611CCCB204
:10E610000DF8002023466A46EA490120FEF79EF9DC
:10E620000024681C4108E8A017F00CF9BDE8FC873D
:10E63000012524E1D9480078012876D103F0A7F913
:10E64000002838D100222146601CC4B20DF80120F8
:10E650002046611CCCB20DF80020681C420E2046FA
:10E66000611CCCB20DF80020681C4008C0F30742C2
:10E670002046611CCCB20DF80020681C4008C0F395
:10E6800007222046611CCCB20DF80020681CC0F3A4
:10E6900047022046611CCCB20DF8002023466A4692
:10E6A000C8490120FEF75AF90024681C4108D1A08E
:10E6B00017F0C8F83AE000222046611CCCB20DF8F1
:10E6C000002001222046611CCCB20DF80020681CFD
:10E6D000420E2046611CCCB20DF80020681C400898
:10E6E000C0F307422046611CCCB20DF80020681C24
:10E6F0004008C0F307222046611CCCB20DF8002070
:10E70000681CC0F347022046611CCCB20DF8002003
:10E7100023466A46AB490120FEF720F90024681C15
:10E720004108A9A017F08EF880E70BE00EF021F960
:10E7300080460EF016F98146414603F070FE01282E
:10E740007ED1A0E09548007802284FD1012002F048
:10E7500085FE28B9681C4108B1A017F073F839E0AC
:10E7600000222046611CCCB20DF800200122204678
:10E77000611CCCB20DF80020681C420E2046611CC2
:10E78000CCB20DF80020681C4008C0F307422046B8
:10E79000611CCCB20DF80020681C4008C0F30722B1
:10E7A0002046611CCCB20DF80020681CC0F3470263
:10E7B0002046611CCCB20DF8002023466A468149F0
:10E7C0000120FEF7CBF80024681C41089FA017F039
:10E7D00039F82BE70EF0CDF880460EF0C2F88146EE
:10E7E000414603F01CFE01283CD14CE000222046AB
:10E7F000611CCCB20DF8002001222046611CCCB275
:10E800000DF80020681C420E2046611CCCB20DF8A9
:10E810000020681C4008C0F307422046611CCCB2AF
:10E820000DF80020681C4008C0F307222046611C38
:10E83000CCB20DF80020681CC0F34702204600E06F
:10E8400010E0611CCCB20DF8002023466A465D49F9
:10E850000120FEF783F80024681C410885A016F00B
:10E86000F1FFE3E60EF085F880460EF07AF8814677
:10E87000414603F0D4FD012800D104E06D1CB5EB46
:10E88000460F7FF6D7AE00BF690885A016F0DAFF05
:10E8900000BFCBE670B504460D462A4621468AA045
:10E8A00016F0D0FFFF2C03D115B9904816F0CAFF1F
:10E8B000052C1DD2DFE804F003080D1217002946CD
:10E8C0002046FFF765FE14E029462046FFF7F2FBDD
:10E8D0000FE029462046FFF761F90AE02946204665
:10E8E000FEF7B7FE05E029462046FEF717FA00BFFF
:10E8F00000BF00BF012002F0B1FD70BD2DE9F04165
:10E900000EF015F80546002611E00EF010F804464A
:10E9100003F0D8FA07467648611B3A46836875A02B
:10E9200016F090FF0A200DF0F3FF701C86B20A2E3D
:10E93000EBDB3A4600210120FDF799FF6C48611B93
:10E940003A46F7E0506172745F546573745F5742E2
:10E95000435F456C65633A20706F736974696F6ECD
:10E96000206572726F722C20693D25640D0A0000CB
:10E97000506172745F546573745F5742435F456CB6
:10E9800065633A20546573742046696E69736865DF
:10E99000642C20693D25640D0A000000540100200C
:10E9A000506172745F546573745F4D6F746F5F581C
:10E9B0003A206D6F746F206F757420737563636593
:10E9C0007373000008070001506172745F5465732F
:10E9D000745F4D6F746F5F583A206D6F746F206F66
:10E9E0007574206572726F722C20693D25640D0A62
:10E9F00000000000506172745F546573745F4D6F66
:10EA0000746F5F583A206D6F746F206F7574207348
:10EA10007563636573732C20693D25640D0A0000DE
:10EA2000506172745F546573745F4D6F746F5F589B
:10EA30003A206D6F746F20696E2073756363657320
:10EA4000732C20693D25640D0A000000506172742A
:10EA50005F546573745F4D6F746F5F583A206D6FCC
:10EA6000746F20696E206572726F722C20693D256B
:10EA7000640D0A00506172745F546573745F4D6F6A
:10EA8000746F5F583A20706F736974696F6E206598
:10EA900072726F722C20693D25640D0A000000001F
:10EAA000506172745F546573745F4D6F746F5F581B
:10EAB0003A20546573742046696E69736865642CE6
:10EAC00020693D25640D0A00506172745F546573BE
:10EAD000745F457865633A204E6F3D25642C204E67
:10EAE000756D203D2025640D0A00000064CF0008EC
:10EAF000CC14002052657475726E5F50726573732A
:10EB00005F56616C7565207469636B733D253038A1
:10EB1000642C2070726573733D25303130642C2075
:10EB200061646470726573733D25303130640D0A21
:10EB3000000000008368FDA016F084FEBDE8F081AF
:10EB400010B500240FE0012002F0F2FE4FF47A70BD
:10EB50000DF0DEFE012002F074FE4FF47A700DF02D
:10EB6000D7FE601CC4B2032CEDDB002010BD10B535
:10EB700000240FE0002002F0DBFE4FF47A700DF06D
:10EB8000C7FE002002F05DFE4FF47A700DF0C0FE6B
:10EB9000601CC4B2032CEDDB002010BD70B5002456
:10EBA00000250DF0C4FE04462546012142F21070F6
:10EBB00002F078FE05E00DF0BAFE054601200DF0EA
:10EBC000A7FE281B41F288318842F4D90121002098
:10EBD00002F068FE002070BD70B5FEF778F80546BB
:10EBE0004FF4D37068431621B0FBF1F42246294656
:10EBF000DEA016F027FE4AF6C870844209D34DF213
:10EC0000D860844205D80022E2490120FDF7C6FD04
:10EC100004E00122DF491046FDF7C0FD204670BD2B
:10EC20002DE9F04105460DF082FE0746284602F028
:10EC300015FC06469EB90DF07AFE0446E01B41F233
:10EC40007071884204D901210846FDF722FF0AE0CD
:10EC500000210120FDF71DFF0020BDE8F08101210A
:10EC60000846FDF716FF0120F7E72DE9F0410746BA
:10EC700000250DF05CFE0646384602F088FE05468B
:10EC8000C5B90DF054FE0446A11B2A46C2A016F0D9
:10EC9000D9FDA01B41F27071884204D200210846C0
:10ECA000FDF7F7FE0AE001210020FDF7F2FE00204B
:10ECB000BDE8F08101210020FDF7EBFE0120F7E720
:10ECC0002DE9F04106460C4615460027288840F2FB
:10ECD000DC51884201DBBDE8F0810CE014F8010B47
:10ECE00006F8010B781C07B2962F04DB9627B2A01A
:10ECF00016F0A8FD02E020780028EFD100BF288898
:10ED00003844288000BFE6E703B5C1B0002040903A
:10ED10003F903E903D903C903B903A903990389097
:10ED20003790369035903490FF2033900020329009
:10ED300098210CA816F01DFB00200B90BDF82C109C
:10ED4000429801800020FDF704FF0DF0F0FD39909E
:10ED50009F4801689FA016F075FD00200B9044228B
:10ED6000BDF82C00411C89B2CDE90A0141990A5431
:10ED70005322BDF82C00411C89B2CDE90A0141990A
:10ED80000A545722BDF82C00411C89B2CDE90A0172
:10ED900041990A544422BDF82C00411C89B2CDE9A6
:10EDA0000A0141990A543022BDF82C00411C89B255
:10EDB000CDE90A0141990A540022BDF82C00411CFA
:10EDC00089B2CDE90A0141990A540222BDF82C000A
:10EDD000411C89B2CDE90A0141990A540122BDF8CA
:10EDE0002C00411C89B2CDE90A0141990A54002244
:10EDF000BDF82C00411C89B2CDE90A0141990A54A1
:10EE0000BDF82C00411C89B2CDE90A0141990A5490
:10EE10006F480068401C6E49086002F058FA0128EB
:10EE20001DD079A016F00EFD77A10CA816F01AFDE2
:10EE3000BDF82C10419808440BAA0CA90A90FFF7C2
:10EE40003FFF98210CA816F094FABDF82C104298B8
:10EE500001800620FDF7CDFB022043B000BD01205C
:10EE600003F010F933909DF8CC00002820D19DF8D4
:10EE7000CC1070A016F0E6FC9DF8CC206DA10CA87B
:10EE800016F0F0FCBDF82C10419808440BAA0CA910
:10EE90000A90FFF715FF98210CA816F06AFABDF842
:10EEA0002C10429801800320FDF7A3FB0220D4E739
:10EEB0000121002002F0F6FC002002F0C2FC01203B
:10EEC00002F0BFFC002040900520FDF77CFE409042
:10EED0000DF02DFD3F9039993F98401A0A90014658
:10EEE00063A0409A16F0AEFC39993F98401A0A90F8
:10EEF00002465FA10CA8409B16F0B4FCBDF82C1094
:10EF0000419808440BAA0CA90A90FFF7D9FE982152
:10EF10000CA816F02EFABDF82C1042980180634917
:10EF20004098884201DA0121C2E064E152657475BB
:10EF3000726E5F50726573735F56616C7565207495
:10EF400069636B733D253039642C2070726573736F
:10EF50003D25303130642C206164647072657373B8
:10EF60003D25303130640D0A000000005742435FF8
:10EF700034385620536C656620436865636B3A20CD
:10EF80007762635F763D25642C203438763D2564B6
:10EF90000D0A0000020000014F75742053656C6675
:10EFA000436865636B3A20743D253038642C2073C8
:10EFB0003D25640D0A00000074656D702062756661
:10EFC000206973206F76657220666C6F770D0A007A
:10EFD0002C0000200D0A2D2D2D2D2D2D2D2D2D2D0C
:10EFE0002D2D2D2D2D2D2D2D537461727420436FD9
:10EFF000756E743A206E756D3D25642D2D2D2D2D69
:10F000002D2D2D2D2D0D0A00436F756E7420457228
:10F01000726F723A204D542078206E6F74206174A4
:10F0200020686F6D6520706F736974696F6E0D0A6B
:10F0300000000000436F756E74204572726F723A63
:10F040002074686520454C454354524F4445206523
:10F0500072726F72203D202564286265666F72654A
:10F06000206275696C64207072657373290D0A00E3
:10F07000436F756E74205374617475733A206265C2
:10F08000666F7265206275696C6420707265737357
:10F090002C207469636B733D253038642C207072AA
:10F0A0006573733D25303130640D0A008085B50DE0
:10F0B00042F2107002F0F6FB002002F039FC012051
:10F0C00002F0BFFB0DF033FC3F903F983D903F981E
:10F0D0003E9027E00DF02BFC3F90DDE93E10401AFA
:10F0E000642815D33F983E90002040900520FDF7FE
:10F0F0006AFD409039993F98401A0A900146F2A063
:10F10000409A16F09FFBFE494098884200DB10E0D1
:10F110000DF02FFC0A900DF024FC032209900A99AF
:10F1200003F083F83D993F98401A43F698218842AE
:10F13000D0D900BF0121002002F0B4FB002002F072
:10F1400080FB012002F07DFB39993F98401A0A901C
:10F150000146ECA0409A16F075FB39993F98401A89
:10F160000A900246F6490CA8409B16F07BFBBDF8BE
:10F170002C10419808440BAA0CA90A90FFF7A0FD97
:10F1800098210CA816F0F5F8BDF82C1042980180D3
:10F1900043F69822DDE93E101144884252D90DF021
:10F1A000C6FB3F9039993F98401A0A900146E5A066
:10F1B000409A16F047FB39993F98401A0A90024648
:10F1C000E0A10CA8409B16F04DFBBDF82C10419817
:10F1D00008440BAA0CA90A90FFF772FD98210CA80D
:10F1E00016F0C7F8BDF82C10429801800220FDF7F8
:10F1F00000FA022031E60DF09AFB3F9039993F98D2
:10F20000401A0A900146DEA0409A16F01BFB39997D
:10F210003F98401A0A900246D9A10CA8409B16F0CC
:10F2200021FBBDF82C10419808440BAA0CA90A90A8
:10F23000FFF746FD98210CA816F09BF8BDF82C109E
:10F2400042980180012002F01DFF00281FD10DF01F
:10F250006EFB3F90D8A016F0F5FAD7A10CA816F0D7
:10F2600001FBBDF82C10419808440BAA0CA90A9088
:10F27000FFF726FD98210CA816F07BF8BDF82C109E
:10F28000429801800320FDF7B4F90220E5E5012151
:10F29000002002F007FB002002F0D3FA012002F068
:10F2A00047FB00200DF060FB0DF041FB3F903F98C5
:10F2B0003D90FDF70CFD0A90FDF798F909900520A7
:10F2C000FDF781FC08900DF04CFB0790DDE909018A
:10F2D000CDE900019A485030DDE907133A9A16F05B
:10F2E000B1FAFDF7F4FC0A90FDF780F909900520CA
:10F2F000FDF769FC08900DF034FB0790DDE908127A
:10F300000A98CDE9001202908D49A8310CA83A9BC9
:10F31000079A16F0A7FABDF82C10419808440BAADA
:10F320000CA90A90FFF7CCFC98210CA816F021F844
:10F33000BDF82C10429801800DF0F9FA3F903F98EB
:10F340003D903F983C9000203A903290A8A016F053
:10F3500079FAA7A10CA816F085FABDF82C104198EF
:10F3600008440BAA0CA90A90FFF7AAFCBDF82C10C0
:10F3700042980180CEE13C993F98401AC8282CD38E
:10F380003F983C90FDF7A3FC37909BA0379916F06F
:10F3900059FA3C98C83041F294123D991144884280
:10F3A00005D996A10CA8379A16F05CFA04E092A150
:10F3B0000CA8379A16F056FABDF82C10419808445C
:10F3C0000BAA0CA90A90FFF77BFC98210CA815F05A
:10F3D000D0FFBDF82C1042980180012002F052FEAF
:10F3E000F0BBFDF703F90A900520FDF7ECFB09904F
:10F3F0000DF0B7FA08908248016882480068CDE9AC
:10F4000000014F48FC3008A90EC916F01BFAFDF7A1
:10F41000EDF80A900520FDF7D6FB09900DF0A1FA52
:10F42000089077480168774802680A98CDE9012179
:10F4300000904349FC310CA8DDE9082316F012FACC
:10F44000BDF82C10419808440BAA0CA90A90FFF7AC
:10F4500037FC98210CA815F08CFFBDF82C1000E0AB
:10F4600006E0429801800320FDF7C3F80220F4E48F
:10F47000002040900520FDF7A6FB4090624940988F
:10F4800088421FDCFDF7B2F80A900DF06AFA099085
:10F490005B4800685B490968CDE900105B48DDE91D
:10F4A0000913409A16F0CEF9FDF7A0F80A900DF076
:10F4B00058FA099052480168524802680A98CDE902
:10F4C0000121A5E0C1E00000436F756E7420537404
:10F4D00061747573286275696C64696E67207072F7
:10F4E000657373293A207469636B733D2530386402
:10F4F0002C2070726573733D25303130640D0A0025
:10F500008085B50D436F756E742053746174757387
:10F51000286166746572206275696C64207072651A
:10F520007373293A207469636B733D253038642CFA
:10F530002070726573733D25303130640D0A000010
:10F54000AC620208436F756E74204572726F723A36
:10F55000206275696C642070726573732074696DC4
:10F56000656F75742C7469636B733D253038642C3A
:10F570002070726573733D25303130640D0A0000D0
:10F58000436F756E7420537461747573287072655F
:10F59000737320656E6F756768293A207469636BB1
:10F5A000733D253038642C2070726573733D2530AF
:10F5B0003130640D0A000000436F756E742045728F
:10F5C000726F723A2074686520454C454354524F1F
:10F5D0004445206572726F7228616674657220629C
:10F5E00075696C64207072657373290D0A000000E0
:10F5F0005742435F563A200025642C0025640000E2
:10F600003800002034000020003B58080064020845
:10F610000090FE490CA8409B099A16F023F9BDF80A
:10F620002C10419808440BAA0CA90A90FFF748FB3C
:10F6300098210CA815F09DFEBDF82C104298018071
:10F640000720FCF7D6FF022007E40DF092F90A909C
:10F650000DF087F9032209900A9902F0E6FD0DF0FA
:10F6600066F93F903D993F98401A3A9040F2DC513C
:10F670003A9888424ED89DF8C800E8BB0846FDF786
:10F6800035FBC8BB01203290FDF721FB0A90FCF747
:10F69000ADFF09900520FDF796FA08900DF061F98D
:10F6A00007903A9ADDE90910CDE900120290D74897
:10F6B0005430DDE9071316F0C5F8FDF708FB0A9092
:10F6C000FCF794FF09900520FDF77DFA08900DF0F6
:10F6D00048F907903A9BDDE908120A988DE80E0078
:10F6E0000390CA49C4310CA8079A16F0BBF8BDF8BC
:10F6F0002C104198084400E00CE00BAA0CA90A90D9
:10F70000FFF7DEFA98210CA815F033FEBDF82C1097
:10F71000429801803D993F98401A41F294118842E5
:10F720007FF629AEFDF7D3FA0A90FCF75FFF099048
:10F730000520FDF748FA08900DF013F907903A9A62
:10F74000DDE90910CDE900120290B148DDE90713A7
:10F7500016F078F8FDF7BBFA0A90FCF747FF09901E
:10F760000520FDF730FA08900DF0FBF807903A9B62
:10F77000DDE908120A988DE80E000390A44964316F
:10F780000CA8079A16F06EF8BDF82C1041980844A2
:10F790000BAA0CA90A90FFF793FA98210CA815F070
:10F7A000E8FDBDF82C104298018040F6FC00FDF702
:10F7B0009DFA002860D00520FDF705FA0A90FDF7B4
:10F7C00086FA0990012002F05DFC0890FCF70EFF1C
:10F7D00007900DF0C6F806908E4BDDE908210A98D7
:10F7E0001B68CDE90032CDE902108B4803688848D8
:10F7F000C830DDE9061216F025F80520FDF7E3F91B
:10F800000A90FDF764FA0990012002F03BFC089091
:10F81000FCF7ECFE07900DF0A4F806907D4BDDE9B7
:10F8200008210A981B68CDE90132CDE903107A4816
:10F830000068009079490CA8DDE9062316F012F85B
:10F84000BDF82C10419808440BAA0CA90A90FFF7A8
:10F8500037FABDF82C10429801800920FCF7C9FE48
:10F860000DF087F80A900DF07CF8032209900A99B0
:10F8700002F0DBFC0220BDE44FF4FA60FDF736FA3B
:10F88000002861D00520FDF79EF90A90FDF71FFAC8
:10F890000990012002F0F6FB0890FCF7A7FE079004
:10F8A0000DF05FF806905B4BDDE908210A981B68B4
:10F8B000CDE90032CDE9021057480368574870304F
:10F8C000DDE9061215F0BEFF0520FDF77CF90A9070
:10F8D000FDF7FDF90990012002F0D4FB0890FCF738
:10F8E00085FE07900DF03DF806904A4BDDE90821B2
:10F8F0000A981B68CDE90132CDE90310464800683B
:10F900000090464970310CA8DDE9062315F0AAFFE6
:10F91000BDF82C10419808440BAA0CA90A90FFF7D7
:10F92000CFF9BDF82C10429801800820FCF761FE49
:10F930000DF01FF80A900DF014F8032209900A99AF
:10F9400002F073FC022055E4012001F07AFF0CF074
:10F95000EEFF3F903F983D90FDF7B9F90A90FCF714
:10F9600045FE09900520FDF72EF908900CF0F9FFEF
:10F9700007900A9800902948CC3007A90EC915F0C5
:10F9800061FFFDF7A4F90A90FCF730FE099005200D
:10F99000FDF719F908900CF0E4FF0790DDE9090183
:10F9A000CDE900011E490CA8DDE9072315F05AFF37
:10F9B000BDF82C10419808440BAA0CA90A90FFF737
:10F9C0007FF998210CA815F0D4FCBDF82C104298B2
:10F9D0000180ACE00CF0ABFF3F900CF0CAFF0A9046
:10F9E0000CF0BFFF032209900A9902F01EFC0120CF
:10F9F00002F048FBF0BBFDF76AF90A90FCF7F6FD50
:10FA000009900520FDF7DFF808900BE05464020828
:10FA1000886502083800002034000020B46602081F
:10FA2000C86702080CF09DFF07900A980090FE48F6
:10FA300007A90EC915F006FFFDF749F90A90FCF772
:10FA4000D5FD09900520FDF7BEF808900CF089FF60
:10FA50000790DDE90901CDE90001F3490CA8DDE9D2
:10FA6000072315F0FFFEBDF82C10419808440BAA9F
:10FA70000CA900E00BE00A90FFF722F998210CA8EE
:10FA800015F077FCBDF82C104298018057E000205B
:10FA900040900520FDF797F84090E449409888424F
:10FAA0003BDCFDF714F90A90FCF7A0FD09900CF07F
:10FAB00058FF08900A980090DB485830DDE9081399
:10FAC000409A15F0BFFEFDF702F90A90FCF78EFD93
:10FAD00009900CF046FF0890DDE90901CDE900012D
:10FAE000D14958310CA8409B089A15F0BBFEBDF8CF
:10FAF0002C10419808440BAA0CA90A90FFF7E0F8D3
:10FB000098210CA815F035FCBDF82C104298018006
:10FB10000720FCF76EFD0220A9E40CF02AFF0A90F2
:10FB20000CF01FFF032209900A9902F07EFB3D9919
:10FB30003F98401A40F6B83188427FF64BAF00BF7D
:10FB4000FDF7C5F80A90FCF751FD09900520FDF777
:10FB50003AF808900CF005FF07900A980090B24818
:10FB6000AC3007A90EC915F06DFEFDF7B0F80A908C
:10FB7000FCF73CFD09900520FDF725F808900CF0F6
:10FB8000F0FE0790DDE90901CDE90001A649AC319D
:10FB90000CA8DDE9072315F065FEBDF82C1041988F
:10FBA00008440BAA0CA90A90FFF78AF898210CA820
:10FBB00015F0DFFBBDF82C104298018000209C4915
:10FBC0000860FDF784F80A90FCF710FD0990052005
:10FBD000FCF7F9FF08900CF0CCFE07900CF0C1FE8A
:10FBE000069094490A980A6891490B680999CDE9E9
:10FBF0000132009103908C48F03006A90EC915F02F
:10FC000021FEFDF764F80A90FCF7F0FC099005204E
:10FC1000FCF7D9FF08900CF0ACFE07900CF0A1FEA9
:10FC2000069084490A980A6881490B680999CDE9C8
:10FC3000023201910490089800907B49F0310CA8A1
:10FC4000DDE9062315F00EFEBDF82C10419808449E
:10FC50000BAA0CA90A90FFF733F898210CA815F00D
:10FC600088FBBDF82C1042980180012001F060FE55
:10FC700000200CF081FE3A980CF076FE0CF057FE56
:10FC80003F903F983E903F983D903F983C90012098
:10FC900001F04EFE0CF06DFE0A900CF062FE0322A5
:10FCA00009900A9902F0C1FA02F067FA26E10CF015
:10FCB00060FE0A900CF055FE022209900A9902F0AB
:10FCC000B4FA3C993F98401AB0F5FA7F1CD3FCF780
:10FCD000FEFF3790AFF2E060379915F0B3FDAFF259
:10FCE000E8610CA8379A15F0BDFDBDF82C104198BD
:10FCF00008440BAA0CA90A90FEF7E2FFBDF82C10ED
:10FD0000429801803F983C90012002F0BBF933906B
:10FD10009DF8CC00F0BB02F03BFA02F0F9FA0520A6
:10FD2000FCF751FF0A90FCF7D2FF0990FCF75EFC4C
:10FD300008900CF01EFE07900CF013FE06909DF844
:10FD4000CC20DDE909103B4B1B68CDE90132CDE940
:10FD50000310374800680090374806A90EC915F00F
:10FD600071FD0520FCF72FFF0A90FCF7B0FF09900A
:10FD7000FCF73CFC08900CF0FCFD07900CF0F1FD4A
:10FD800006909DF8CC20DDE909102A4B1B68CDE9CF
:10FD9000023200E01EE0CDE9041025480168089811
:10FDA000CDE9000124490CA8DDE9062315F05AFD30
:10FDB000BDF82C10419808440BAA0CA90A90FEF734
:10FDC0007FFF98210CA815F0D4FABDF82C104298AA
:10FDD00001809BE0002040900320FCF7F4FE40905F
:10FDE0001249409888427DDC02F0D2F902F090FA84
:10FDF0000720FCF7FEFBFCF76AFF0A90012002F0E7
:10FE000041F90990FCF7F2FB08900CF0B2FD079065
:10FE10000CF0A7FD0690074B409ADDE909101B681E
:10FE2000CDE901310AE0000010680208003B5808E3
:10FE300034000020380000206C690208CDE903027C
:10FE4000FB4800680090FB4806A90EC915F0FAFCB3
:10FE5000FCF73DFF0A90012002F014F90990FCF72D
:10FE6000C5FB08900CF085FD07900CF07AFD06901C
:10FE7000F14B409ADDE909101B68CDE90231CDE96B
:10FE80000402EB4801680898CDE90001E9490CA893
:10FE9000DDE9062315F0E6FCBDF82C104198084476
:10FEA0000BAA0CA90A90FEF70BFF98210CA815F0DD
:10FEB00060FABDF82C10429801800CF052FD0A90B7
:10FEC000FCF794FB0990BDF82C10DB4A0A981268E5
:10FED000CDE900200291D9480068401E0890D4481E
:10FEE000036800E007E0D3487030DDE9081215F040
:10FEF000A9FC0220BFE40CF01AFD3F9045F6C05269
:10FF0000DDE93E10114488427FF6D1AE00BF02F019
:10FF10003FF902F0FDF90121002001F0C3FC0020AF
:10FF200001F08FFC012001F08CFC0CF01AFD3C90DC
:10FF30000CF01FFD3D90012002F0A4F83390052045
:10FF4000FCF741FE0A90FCF7C2FE0990FCF74EFB5D
:10FF500008909DF8CC20DDE90910B74B1B68CDE96E
:10FF60000132CDE90310B24800680090B148CC30AE
:10FF7000089BDDE93C1215F065FC0520FCF723FE2B
:10FF80000A90FCF7A4FE0990FCF730FB08909DF85E
:10FF9000CC20DDE90910A84B1B68CDE90232CDE980
:10FFA0000410A34801680898CDE90001A4490CA8F1
:10FFB000DDE93C2315F056FCBDF82C1041980844AF
:10FFC0000BAA0CA90A90FEF77BFE98210CA815F04D
:10FFD000D0F9BDF82C104298018045F6C052DDE9F9
:10FFE0003E10114488427DD90CF0A1FC3F900520C1
:10FFF000FCF7E9FD0A90FCF76AFE0990012002F087
:020000040801F1
:1000000041F80890FCF7F2FA07908B4BDDE90821E4
:100010000A981B68CDE90132CDE9031084480068D5
:10002000009087486C30079BDDE93C1215F00AFC14
:100030000520FCF7C8FD0A90FCF749FE0990012055
:1000400002F020F80890FCF7D1FA07907A4BDDE92E
:1000500008210A981B68CDE90232CDE904107448E2
:1000600001680798CDE9000175496C310CA8DDE9FC
:100070003C2315F0F7FBBDF82C10419808440BAA5F
:100080000CA90A90FEF71CFE98210CA815F071F936
:10009000BDF82C10429801800120FCF7AAFA0CF060
:1000A00060FC0A90BDF82C10CDE90001634800689F
:1000B000401E09905E4803686149D4310CA8099A32
:1000C00015F0D0FBBDF82C10419808440BAA0CA9E0
:1000D0000A90FEF7F5FDBDF82C10429801800CF057
:1000E00040FC00E019E00A90FCF780FA0990BDF8A6
:1000F0002C10514A0A981268CDE9002002914F480D
:100100000068401E08904A4803684A487030DDE99C
:10011000081215F097FB022015E40020FCF769FA9D
:100120000CF01FFC0A90FCF761FA0990BDF82C1046
:10013000414A0A981268CDE9002002913F480068C0
:10014000401E08903A4803683A487030DDE90812CA
:1001500015F078FB0020DFE430B587B00020069072
:100160000590049003900290012001F060FE0CF0D5
:10017000DEFB069033A0069915F064FB01210020F8
:1001800001F090FB002001F0D3FB012001F059FBAE
:10019000022001F056FB0CF0CAFB06900698059071
:1001A0000CE00CF0C4FB06900CF0E3FB04460CF0F2
:1001B000D8FB05460322214602F037F8DDE90501A8
:1001C00032308142EDD90CF0B2FB069025A00699A1
:1001D00015F038FB012142F2107001F063FB0020A2
:1001E00001F0A6FB012001F02CFB022001F029FB0D
:1001F00000200CF0B9FB0CF09AFB069006980590D5
:100200004EE00CF094FB06900A210698B0FBF1F248
:1002100001FB120058B9032001F01EFE049001F00A
:1002200047FF0390BDF80C30BDF810202AE02DE008
:1002300034000020D8690208380000202C0000207B
:10024000106B02080D0A0D0A203D3D3D2074696DBA
:10025000696E6720313A2025302E3864203D3D3DBF
:10026000200D0A000D0A0D0A203D3D3D2074696DE8
:10027000696E6720323A2025302E3864203D3D3D9E
:10028000200D0A00F8A0069915F0DCFA0CF071FBBD
:1002900004460CF066FB05460322214601F0C5FF2B
:1002A00041F6727105980844323806998842A8D2FE
:1002B0000CF03DFB0690F2A0069915F0C3FA01215F
:1002C000002001F0EFFA002001F0BBFA012001F05C
:1002D0002FFB022001F02CFB0CF029FB0690069866
:1002E000059022E00CF023FB06900A210698B0FB53
:1002F000F1F201FB120070B9032001F0ADFD049092
:1003000001F0D6FE0390BDF80C30BDF81020D6A049
:10031000069915F097FA0CF02CFB04460CF021FB23
:1003200005460322214601F080FF42F25A3105982A
:100330000844A0F5F850723806998842D2D20CF0E1
:10034000F6FA0690D6A0069915F07CFA0121002055
:1003500001F0A8FA002001F074FA012001F0E8FA97
:10036000022001F0E5FA012001F0C8FE012001F0B1
:10037000DAFE012001F0ECFE00200CF0FDFA0CF09A
:10038000D6FA06900698059029E00CF0D0FA06906F
:100390000A210698B0FBF1F201FB1200A8B9032074
:1003A00001F05AFD049001F083FE0390002001F05B
:1003B00053FD0290BDF808000090BDF80C30BDF868
:1003C0001020BFA0069915F03DFA0CF0D2FA0446B1
:1003D0000CF0C7FA05460322214601F026FF45F638
:1003E000F25105980844A0F50C505A3806998842F5
:1003F000CBD2002001F082FE002001F094FE00200C
:1004000001F0A6FE0CF093FA0690B6A0069915F03E
:1004100019FA0121002001F045FA002001F011FA3B
:100420000CF085FA06900698059022E00CF07FFA11
:1004300006900A210698B0FBF1F201FB120070B998
:10044000032001F009FD049001F032FE0390BDF895
:100450000C30BDF8102084A0069915F0F3F90CF0CB
:1004600088FA04460CF07DFA05460322214601F085
:10047000DCFE46F6AA1105980844A0F5BA40F23809
:1004800006998842D2D20CF052FA06909DA00699A5
:1004900015F0D8F90121002001F004FA002001F044
:1004A000D0F90CF044FA0690069805900CE00CF098
:1004B0003EFA06900CF05DFA04460CF052FA05463E
:1004C0000322214601F0B1FE46F6DC1105980844EE
:1004D000A0F5D240AA3806998842E8D20CF027FA53
:1004E000069090A0069915F0ADF90CF020FA069050
:1004F000069805900CE00CF01AFA06900CF039FA08
:1005000004460CF02EFA05460322214601F08DFE2A
:1005100047F6645105980844A0F5D240DC380699A6
:100520008842E8D20121002001F0BCF9002001F04E
:1005300088F9012001F085F9022001F082F90120FB
:1005400001F0DCFD002007B030BD2DE9FE4F044670
:100550000D464FF00009C8460020029082460190E7
:1005600000260027834694F80390E379A279617905
:10057000207900F02BFC8046E0780090A378627828
:100580002178704815F05EF9E0790090A3796279DE
:1005900021796C48243015F055F9E07A0090A37A5F
:1005A000627A217A6748383015F04CF9B9F1570F63
:1005B00048D140F20151A8EB0100884543D02DDC21
:1005C000B8F5827F40D015DC40F20111A8EB0100A4
:1005D00088453AD009DCB8F1000F37D0B8F1010FE7
:1005E00035D0B8F5807F33D1DBE0012831D0022847
:1005F000F9D1DEE0B8F5407F2CD008DCA8F580709A
:10060000053828D0012827D0FB28ECD1FAE0B8F52E
:10061000806F22D0B8F5A06FE5D119E140F2032236
:10062000811A90421AD01ADCB0F5007F18D018DC7D
:10063000FF2817D0B0F5807F15D0A0F58070FF3867
:10064000D1D16DE1B0E10CE1BBE0AEE093E09CE024
:10065000F4E0B2E0F7E0B7E0B9E0F8E06EE17AE0AC
:1006600062E171E02AE13EE10D0A2025302E386476
:100670003A2025302E35642C2025302E356400009C
:100680000D0A0D0A203D3D3D2074696D696E67209D
:10069000333A2025302E3864203D3D3D200D0A00A0
:1006A0000D0A0D0A203D3D3D2074696D696E67207D
:1006B000343A2025302E3864203D3D3D200D0A007F
:1006C0000D0A2025302E38643A2025302E35642C32
:1006D0002025302E35642C20484742203D202530EF
:1006E0002E3564000D0A0D0A203D3D3D2074696DD4
:1006F000696E6720353A2025302E3864203D3D3D17
:10070000200D0A000D0A0D0A203D3D3D2074696D43
:10071000696E6720363A2025302E3864203D3D3DF5
:10072000200D0A000D0A0D0A203D3D3D2074696D23
:10073000696E6720373A2025302E3864203D3D3DD4
:10074000200D0A0010CF0008A0F50070013874D009
:10075000012873D1EFE0042971D006DC01296FD0A4
:1007600002296ED00329F4D1F2E005296AD0B1F54F
:10077000827FEED1FEE0607A18B9207A01F061F84C
:1007800002E0207A01F0D4F80DE1E37AA27A617AEE
:10079000207A00F01BFB06460121304601F082F86A
:1007A00001E1002000F05AFEFDE0002001F0EFF82A
:1007B000F9E0002000F06CFFF5E0002000F0ABFD58
:1007C000F1E000F00BFFEEE001F080FAEBE0617A7F
:1007D000207A00F0F5FA0190BDF80400FA4988800B
:1007E0004AF6CD30088008468188F8A015F02AF82E
:1007F0001021F54802F0B6F8002207210120FBF78E
:1008000068FFD0E0617A207A01F0ECFA207A98B99A
:10081000607AED4988704AF6CD30088008468178C4
:10082000F0A015F00FF81021E74802F09BF8002225
:1008300010210120FBF74DFFB5E079E0B2E08DE03B
:1008400080E082E087E0207A01F082FCABE0AAE061
:100850004FF4A0684FF0010AFFF77EFC00200290E1
:10086000A1E040F2015802A92846FEF74DFA48B12E
:100870000121002001F016F8002000F0E2FF012025
:1008800000F0DFFFBDF808000A38000A2872BDF842
:1008900008000A386872BDF80810284614F0CAFC2F
:1008A000012801D10CF034F8BDF80810D2A014F0E2
:1008B000C9FF00200290FCF74CF974E0E37AA27AB9
:1008C000617A207A00F082FA0646E37BA27B617BA4
:1008D000207B00F07BFA83465946304601F054FBFA
:1008E000002002905FE0617A207A00F063FA074608
:1008F000C6487843B44988604AF6CD300880084637
:1009000039468268C2A014F09DFF1021AE4802F063
:1009100029F8002240F201110120FBF7DAFE42E043
:100920000120FEF7A2F93EE00120FEF779F93AE056
:10093000FEF752F937E0FCF7B1FC34E00120FCF798
:1009400058FD30E0FEF72AF92DE0FEF710F92AE015
:10095000FEF7F6F827E0FDF7D1FF24E0237BE27AEB
:10096000A17A607A00F032FA0646207A3146FDF725
:1009700091FF18E0617A207A00F022FA0190637BFF
:10098000227BE17AA07A00F021FA06463246BDF8D1
:100990000410A7A014F056FF3146BDF80400FCF780
:1009A00022F900E000BF00BFB9F1520F6FD1B8F1DA
:1009B000060F6DD007DCB8F1050F6AD2DFE808F04A
:1009C00017293B526A00B8F5807F6FD006DCB8F17A
:1009D000070F6CD0B8F1080F5BD192E0A8F58070DA
:1009E00001387DD06FF000514018F5D1E0E04FF0B4
:1009F00000084FF0010A032001F02EFA0190BDF823
:100A00000400000A2870BDF80400687002200290FB
:100A10004FE14FF00108C246002001F0BCFA2870F7
:100A2000012001F0B8FA6870022001F0B4FAA87051
:100A3000032002903DE14FF002084FF0010A002030
:100A400000F0FFFB2870012000F0FBFB6870022023
:100A500000F0F7FBA870032000F0F3FBE87004201F
:100A6000029026E14FF003084FF0010A322028706F
:100A7000302068702021A81C14F07BFC75480168A8
:100A8000C5F802108088E8802220029011E111E16F
:100A900016E00DE14FF0010A4FF00408207A38B952
:100AA0000020287000F013FC687006E048E01BE0AE
:100AB0000120287000F021FC687002200290F8E00C
:100AC0004FF0010A4FF0060801F078F980B201906A
:100AD000BDF8040000122870BDF80400687000E042
:100AE0001DE002200290E4E0374881885AA014F00B
:100AF000A9FE3548808802B25E490320FBF74EFE0E
:100B0000D7E0314881785CA014F09CFE2E488078B4
:100B100042B25849491C0320FBF7DBFDC9E02A48D3
:100B200080683A4990FBF1F007B2394658A014F0BA
:100B300089FE3A464F49FA310320FBF72FFEB8E011
:100B40004FF480784FF0010A0520FCF73CF8064688
:100B5000300E2870300C6870300AA870EE70524861
:100B6000B6FBF0F66420B6FBF0F00A21B0FBF1F220
:100B700001FB12004FF47A71B6FBF1F10A22B1FBCE
:100B8000F2F302FB131140EA011028710A20B6FBB0
:100B9000F0F100FB11600A21B6FBF1F1B1FBF2F3B9
:100BA00002FB131140EA011068710620029080E0F8
:100BB000DFF8C08008F1FB084FF0010A3B480078DD
:100BC00028700120029074E0CC140020536574203A
:100BD0004D6F746F205820416464205374657025F4
:100BE000640D0A00536574205742432056616C75AA
:100BF000653D25640D0A00006465627567206D73AC
:100C000067206C656E3A2025640D0A0040420F0093
:100C1000536574206164643D25642C2061646470B4
:100C2000726573733D25303130640D0A0000000099
:100C300053656E64205061636B65742054657374F2
:100C40003A2074696D653D25642C206E756D3D25D7
:100C5000640D0A00B45D02085175657279204D6F0C
:100C6000746F20582041646420537465703D25647E
:100C70000D0A000007000030517565727920574257
:100C8000432056616C75653D25640D0A0000000027
:100C90005175657279204164642050726573733DAB
:100CA00025640D0A00000000A08601003C00002021
:100CB00000BF00BFFBF77EFC01280BD101A928462D
:100CC000FBF728FCBDF804302A464146532000F0CB
:100CD000C5F909E0BAF1010F06D1BDF808302A467E
:100CE0004146532000F0BAF90020BDE8FE8F70B5F0
:100CF000012142F2107000F0D5FD002000F018FE36
:100D0000012000F09EFD0BF012FE05462E4614E079
:100D10000BF00DFE06460520FBF755FF0446134871
:100D200084420ADB0121002000F0BCFD002000F01D
:100D300088FD012000F085FD04E0701B43F698213A
:100D40008842E5D900BF701B43F6982188420BD931
:100D50000121002000F0A6FD002000F072FD01201E
:100D600000F06FFD012070BD0020FCE78085B50D0F
:100D70000020F8490870704710B50CF053FA0CF0D9
:100D80003BFB0CF02BFC0CF013FDFFF7F1FF0020F8
:100D900010BD30B503460C460021002500BF04E01D
:100DA000585C2844C5B2481C81B2A142F8DB1570DA
:100DB000002030BD0246002001EB022318B270472C
:100DC0000246002001EB022398B2704730B504467A
:100DD0000020250605EB014505EB0225E81830BD8E
:100DE0001CB54520019000200090002240F22661B1
:100DF000D9480BF012F98021D7480BF09FF908B1C0
:100E0000012000E0002001280BD101A80CF02CFAF1
:100E100000909DF8000020B99DF80410CE480AF01B
:100E2000A4FD012240F22661CB480BF0F6F89DF8B4
:100E300000001CBD38B504460020009020460CF090
:100E4000F8F900909DF8000010B9FFF7C9FF009075
:100E50009DF8000038BD38B504460D4600200090CE
:100E6000294620460CF06AFA00909DF8000010B95F
:100E7000FFF7B6FF00909DF8000038BD1CB5044692
:100E80000020019000900EE0BDF80010605C0CF0B6
:100E9000D0F90190BDF80000401C80B200909DF890
:100EA000040000B104E0BDF80000205C0028EBD194
:100EB00000BF9DF8040010B9FFF792FF01909DF864
:100EC00004001CBD2DE9FF4107463E4600240CE00E
:100ED0000A20B6FBF0F100FB116030300DF8040081
:100EE0000A20B6FBF0F6601CC4B2002EF0D1002040
:100EF0000DF8040000250DE01DF80580601E401B64
:100F00001DF800000DF80500601E401B0DF8008064
:100F1000681CC5B204EBD471B5EB610FECDB68461D
:100F2000FFF7ACFF002004B0BDE8F0811CB5452000
:100F3000019000200090202187480BF0FFF808B1B5
:100F4000012000E0002001281BD1202182480BF065
:100F500059F9002240F225517F480BF05EF87E4897
:100F60000AF039FDC0B201909DF804000CF04BFA74
:100F700000909DF80000012240F2255176480BF0C8
:100F80004CF8402174480BF0D9F808B1012000E07A
:100F90000020012825D140216F480BF033F90022B1
:100FA00040F226616C480BF038F880216A480BF05B
:100FB000C5F808B1012000E0002001280BD101A8EC
:100FC0000CF052F900909DF8000020B99DF8041033
:100FD00061480AF0CAFC012240F226615E480BF02B
:100FE0001CF81CBD38B504460020009020460CF0CB
:100FF000FCFA00909DF800009DF8000038BD38B55F
:1010000004460D4600200090294620460CF072FB55
:1010100000909DF800009DF8000038BD1CB5044606
:101020000020019000900EE0BDF80010605C0CF014
:10103000DCFA0190BDF80000401C80B200909DF8E1
:10104000040000B104E0BDF80000205C0028EBD1F2
:1010500000BF9DF804009DF804001CBD2DE9F04779
:1010600080460C4691461E46002501203B490870EB
:1010700044203B4908705320487057208870084628
:1010800080F80380200E0871200C4871200A8871B6
:10109000CC7100BF07E019F8051005F10800304ACF
:1010A0001154681C85B2B542F5DB06F1080081B227
:1010B0002B4814F0BFF8074617B12AA0FFF7DEFE51
:1010C000002026490870BDE8F08770B504460D463B
:1010D0000120224908702A462146214814F030F99F
:1010E0001F4814F051F986B231461D4814F0A2F899
:1010F00000201A49087070BD70B504460025012013
:1011000016490870220E29466D1C15484254C4F336
:10111000074229466D1C4254C4F3072229466D1C20
:10112000425429466D1C4454294614F083F800208B
:101130000A49087070BD3EB5044600200549087094
:101140000CF07DFB0090BDF8000008281ADA0CF0C6
:101150002FFB3EBD3E000020001001403D0000205E
:10116000E60100202A2A2A204672616D652062610C
:10117000636B206572726F722021202A2A2A0D0A61
:1011800000000000BDF80000C82802DB0CF010FBD6
:101190003EBD002001900CE002A80CF02BFB9DF856
:1011A0000800BDF804106054BDF80400401C80B273
:1011B0000190BDF80400BDF800108842ECDB2078F7
:1011C000432805D16078422802D1A078572802D060
:1011D0000CF0EEFADCE7E078572805D0E0785228EA
:1011E00002D00CF0E5FAD3E70120064908700CF0B4
:1011F000DFFA00BFCCE70448007870470148007868
:10120000704700003E0000203D00002008B501208E
:1012100032234FF4FA525110009000200BF00CFED4
:101220000A2064234FF4FA525110009001200BF071
:1012300003FE00200BF038FF01200BF035FF0020EB
:1012400008BD3EB5044600200290012000900C200D
:101250000290012201A802990BF0CBFA34B1012CC3
:101260000FD0022C18D0032C2CD120E0BDF80400A4
:1012700010F0010F02D00120009001E0002000904A
:1012800021E0BDF8040010F0020F02D00120009010
:1012900001E00020009016E0BDF8040010F0040FFB
:1012A00002D00120009001E0002000900BE0BDF88A
:1012B000040010F0080F02D00120009001E000208F
:1012C000009000E000BF00BF9DF800003EBD10B5DB
:1012D000FE48007870B90020FFF7B3FF18B901206D
:1012E000FA49087006E00120FFF7ABFF10B90220B1
:1012F000F6490870F548007810BD10B5F3484078FD
:1013000030B90220FFF79DFF10B90120EF49487066
:10131000EE48407810BD10B586B0044624B90022CE
:1013200011460120FBF77BFBE94800690290E84881
:1013300040690390E64880690490E548C0690590DB
:101340000220FFF77EFF01283AD10A2064234FF4E0
:10135000FA525110009001200BF06EFD002248F669
:10136000B80101200BF0C7FD12E001200BF013FFC4
:1013700001280DD10BF098FE3CB90520FBF739F997
:10138000002202210120FBF74AFB022006B010BD1B
:101390000220FFF756FF0128E7D000224FF4167114
:1013A00001200BF0A8FD00BF01200BF0F4FE002887
:1013B000FAD003200BF0ACFA01200BF075FE38E0F8
:1013C0000A2064234FF4FA525110009001200BF0D0
:1013D00033FD012244F6206110460BF08CFD11E034
:1013E00001200BF0D8FE01280CD10BF05DFE3CB9BA
:1013F0000520FBF7FEF8002202210120FBF70FFB7E
:101400000220C3E70220FFF71CFF0028E8D00022DB
:101410004FF4167101200BF06EFD00BF01200BF0A0
:10142000BAFE0028FAD003200BF072FA01200BF06C
:101430003BFE0020A549C860012048700598009037
:10144000049B039A029901200BF0F6FC24B90022B8
:1014500001210846FBF7E3FA002097E710B586B0B4
:10146000044600200190FFF7ECFE012803D120463E
:10147000FFF751FF0AE04CB9002211460120FBF7AB
:10148000CEFA002201210846FBF7C9FA24B900224E
:1014900011461046FBF7C3FA8D48006802908C484D
:1014A000406803908A48806804908948C068059025
:1014B0000020FFF7C6FE01287BD10A20642342F2F8
:1014C00010724FF4F061009000200BF0B5FC002288
:1014D00047F2305110460BF00EFD08E000200BF0F3
:1014E0005AFE012803D100200BF0DEFD04E00020AD
:1014F000FFF7A7FE0128F1D000BF0A2064234FF4B4
:10150000F0621146009000200BF096FC002241F2A0
:10151000883110460BF0EFFC13E000200BF03BFE8F
:1015200001280ED100200BF0BFFD3CB90520FBF7D0
:1015300060F8002202211046FBF771FA022006B083
:1015400010BD0020FFF77DFE0128E6D000200BF043
:10155000ABFD60488088002823DD0A2064234FF417
:10156000F0621146009000200BF066FC594881881B
:10157000002210460BF0BFFC10E001A900200BF088
:10158000EEFD544880880199401A052803D80020B0
:101590000BF08AFD04E002200BF0BAF9EDE708E059
:1015A00000BF4C4881884CA014F04CF900200BF08F
:1015B0007BFD002045498860012008700598009057
:1015C000049B039A029900200BF036FC24B90022F8
:1015D00001211046FBF723FA0020B0E700B585B0E3
:1015E000002211461046FBF71AFA394800680190AC
:1015F0003748406802903648806803903448C06895
:1016000004900020FFF71DFE01282DD10A2064233D
:101610004FF4FA525110009000200BF00DFC002204
:1016200048F6B80110460BF066FC12E000200BF003
:10163000B2FD01280DD100200BF036FD0520FAF790
:10164000D8FF002202211046FBF7E9F9022005B07D
:1016500000BD0020FFF7F5FD0128E7D003200BF0C7
:1016600057F900200BF020FD002018498860012068
:10167000087004980090039B029A019900200BF0D7
:10168000DBFB002201211046FBF7C9F90020DEE751
:1016900010B504463CB90D48407820B100221146EF
:1016A0000120FBF7BCF90948407810B92046FFF744
:1016B00032FE0648407801281FD101224FF4FA611A
:1016C00010460BF018FC0220004915E054010020E0
:1016D00038760020CC1400204D6F746F20582041C4
:1016E00064642053746570282564292046696E73EC
:1016F0006865640D0A00000048703CB9FD484078F8
:1017000020B1002201210846FBF789F9002010BD15
:1017100000B585B0F84800690190F748406902902B
:10172000F54880690390F448C06904900220FFF7EF
:1017300088FD012831D10A2064234FF4FA52511058
:10174000009001200BF078FB002248F6B801012040
:101750000BF0D1FB09E001200BF01DFD012804D1A5
:101760000BF0A2FC022005B000BD0220FFF769FDCE
:101770000128F0D000224FF4167101200BF0BBFBC2
:1017800000BF01200BF007FD0028FAD003200BF06A
:10179000BFF801200BF088FC2FE00A2064234FF4EF
:1017A000FA525110009001200BF046FB012244F642
:1017B000206110460BF09FFB08E001200BF0EBFCD2
:1017C000012803D10BF070FC0220CCE70220FFF7C8
:1017D00038FD0028F1D000224FF4167101200BF0E3
:1017E0008AFB00BF01200BF0D6FC0028FAD00320B2
:1017F0000BF08EF801200BF057FC0020BD49C860AB
:101800000120487004980090039B029A01990120DE
:101810000BF012FB0020A6E710B5B648407808B9D7
:10182000FFF776FFB3484078012808D101224FF432
:10183000FA6110460BF05FFB0220AE4948700020B1
:1018400010BD3EB50446002002900190052C1DDC21
:101850000F2C11DC2046C0B202909DF80810012028
:101860008840A64909880843A4490880522001906D
:1018700008460088ADF800000122684601990AF088
:1018800078FF21469EA013F0DDFF09E0062C01DB66
