:020000040800F2
:100000009847012009C4000811C4000813C400085F
:1000100015C4000817C4000819C400080000000037
:100020000000000000000000000000001BC40008E9
:100030001DC40008000000001FC40008E9D001082A
:1000400023C4000823C4000823C4000823C40008F4
:1000500023C4000823C4000823C4000823C40008E4
:1000600023C4000823C4000823C4000823C40008D4
:1000700023C4000823C4000823C4000823C40008C4
:1000800023C4000823C4000823C4000823C40008B4
:1000900023C4000823C4000823C400080DD20108AB
:1000A00023C4000823C4000823C4000823C4000894
:1000B0000FD1010823C4000823C4000823C400088A
:1000C00023C4000823C4000823C4000823C4000874
:1000D00023C400082DD2010823C400083BD2010824
:1000E00023C4000823C4000823C4000823C4000854
:1000F00023C4000823C4000823C4000823C4000844
:1001000023C4000823C4000823C4000823C4000833
:1001100023C4000823C4000823C4000823C4000823
:1001200023C4000823C4000823C4000823C4000813
:1001300023C4000823C4000823C4000823C4000803
:1001400023C4000823C4000823C4000823C40008F3
:1001500023C4000823C4000823C4000823C40008E3
:1001600023C4000823C4000823C4000823C40008D3
:1001700023C4000823C4000823C4000823C40008C3
:1001800023C4000823C40008DFF80CD000F006F8F0
:100190000048004719C1000898470120064C074D48
:1001A00006E0E06840F0010394E807009847103447
:1001B000AC42F6D3FFF7ECFFE001000800020008B4
:1001C00002E008C8121F08C1002AFAD17047704720
:1001D000002001E001C1121F002AFBD1704700007E
:1001E0000002000800000020540100001E61020807
:1001F0003C0200085401002044460100D0010008E0
:1002000011847A030A000918010203040607080989
:1002100002130163FFFF14E0A40245A0E6CD05022E
:100220001B452964091C6829660912040120031D65
:0C023000CDAB22C0033F6E19194401241D
:020000040800F2
:10C0000010B506F022F9642011F01EF906F02CF9A3
:10C01000142011F019F906F027F9142011F014F981
:10C0200006F022F9142011F00FF906F01DF9474827
:10C030000021016041608160C160102107F0D3F8E8
:10C04000012805D142A01AF099F8404807F0C0F83D
:10C050003E480088A0F52B41CD3909D046A01AF002
:10C060008DF83A4807F0B4F81021384807F0CAF8BC
:10C07000364883688288817849A01AF07FF811F0E9
:10C08000F2F80446214651A01AF078F82F4881783A
:10C09000002006F00CF9FF21012006F008F9FF212D
:10C0A000022006F004F9FF21032006F000F9022027
:10C0B00011F0B3FA032011F0B8FAC82011F0C4F857
:10C0C000022011F0B2FA032011F0A7FAC82011F0F3
:10C0D000BBF8022011F0A1FA032011F0A6FAC82043
:10C0E00011F0B2F8022011F0A0FA032011F095FA35
:10C0F000C82011F0A9F8022011F08FFA032011F0E6
:10C1000094FAC82011F0A0F8022011F08EFA032052
:10C1100011F083FA10BD704705F026F806F071FEA5
:10C1200011F018FA19F0F3FA19F08CF919F0B5FCBE
:10C1300000F07CF9FFF764FF28A01AF01FF8002038
:10C140002D49087001E006F0DAFDFCE7D018002068
:10C1500072656164207265636F72642070617261E0
:10C160006D206661696C2C2072657365742074683B
:10C170006F73650D0A0000007265636F7264207052
:10C180006172616D20666C6167206572726F722CDE
:10C190002072657365742074686F73650D0A000002
:10C1A000506172616D3A207762633D25642C206195
:10C1B0006464737465703D25642C206164647072DE
:10C1C0006573733D25303130640D0A00776263205A
:10C1D0007469636B733D25640A0000000D0A202E0C
:10C1E0002E2E2E2E2E205265616479696E67202EC8
:10C1F0002E2E2E2E2E0D0A003C0000200CB5002005
:10C20000019000907548006840F4803073490860E0
:10C2100000BF7248006800F4003000900198401C94
:10C220000190009818B90198B0F5A04FF1D16B4872
:10C23000006810F4003F02D00120009001E00020CF
:10C2400000900098012845D164484030006840F0D3
:10C2500080506249403108606148006840F44040C5
:10C260005F4908605D48083000685C490831086033
:10C270000846006840F4004008600846006840F442
:10C28000A05008605748091F0860081F006840F068
:10C290008070091F086000BF5048006810F0007FE0
:10C2A000FAD040F20570504908604C4808300068E8
:10C2B00020F003004949083108600846006840F052
:10C2C0000200086000BF45480830006800F00C001C
:10C2D0000828F8D10CBD10B54448006840F470003F
:10C2E000424908603D48006840F001003B49086051
:10C2F00000203A4908310860384800683C49084045
:10C30000364908603B48091D0860081F006820F492
:10C310008020091F0860002030490C310860FFF7B9
:10C320006DFF4FF0006031498039086010BD70B575
:10C3300000200022022300240221284D08352D6808
:10C3400005F00C0020B1042806D0082834D107E0FD
:10C35000294D2A4E356033E0294D284E35602FE0B7
:10C360001E4D2D1D2D68C5F380541C4D2D1D2D68AF
:10C3700005F03F0154B1224DB5FBF1F5174E361DC6
:10C380003668C6F3881605FB06F209E01A4DB5FBC0
:10C39000F1F5124E361D3668C6F3881605FB06F217
:10C3A0000E4D2D1D2D68C5F301456D1C6B00B2FBB4
:10C3B000F3F5124E356003E00F4D104E356000BFAF
:10C3C00000BF064D08352D68C5F303150D4E705D91
:10C3D0000A4D2D68C540094E356070BD00380240D9
:10C3E0000070004008544007003C024088ED00E027
:10C3F000FFFFF6FE103000240024F40000000020AF
:10C4000000127A00040000200648804706480047D2
:10C41000FEE7FEE7FEE7FEE7FEE7FEE7FEE7FEE7F4
:10C42000FEE7FEE7D7C200088901000810B540F218
:10C430000641684819F021FC00206649087010BDCB
:10C4400000206549086065490860654908704870C2
:10C450008870C8708860C860086148616149087068
:10C4600048708870C87060490870487000215E4844
:10C47000817000205D49087048708870C87008712C
:10C4800048718871C871087248728872C8720873DE
:10C4900048738873C873087448748874C8740875BE
:10C4A0000F204875422088754020C8750020087606
:10C4B0000F204876422088764020C876002081F8F8
:10C4C000240081F82500C82081F82600012081F889
:10C4D00027002C2081F82800002081F829001E2048
:10C4E00081F82A00002081F82B0081F82C0081F8C7
:10C4F0002D0081F82E0081F82F00042081F83000F3
:10C50000B02081F83100002039490870C8204880E7
:10C51000002008714FF496713548C18000207047A3
:10C520000020704730B503460C46002100222A48FF
:10C53000006808B9012000E0002010B10020208030
:10C5400030BD0022002123E02A4850F82100224D6E
:10C550002D6828421AD0284830F81100050A03F83F
:10C560002250254810F811509000401C1D542348BB
:10C5700030F81100050A9000801C1D541F4810F867
:10C5800011509000C01C1D54501C82B2481C81B236
:10C590002029D9DB228000200F4D286000BFCFE783
:10C5A0000246202A01DB01207047124850F8220081
:10C5B000094B1B681843084B1860104820F81210EC
:10C5C0000020F1E70448006808B900207047012006
:10C5D000FCE70000E60100202400002028000020E5
:10C5E00054010020140000201800002070010020D9
:10C5F0001C0000202C660208AC660208A601002080
:10C60000FE48006870472DE9FF410746002410F0FE
:10C6100044FE85B22A122146641C0DF80120EAB2BC
:10C620002146641C0DF8012010F03FFE85B22A124D
:10C630002146641C0DF80120EAB22146641C0DF865
:10C6400001203A122146641C0DF80120FAB221465D
:10C65000641C0DF80120FFF7D3FF0646320E214679
:10C66000641C0DF80120C6F307422046611CCCB2C1
:10C670000DF80020C6F307222046611CCCB20DF84D
:10C680000020F2B22046611CCCB20DF8002000BFA1
:10C6900010F00BFE401B80B23228F9DB23466A46BD
:10C6A0004FF48011532004F0D1FE00BF10F0FDFDC7
:10C6B000401B80B23C28F9DB23466A464FF48011C8
:10C6C000532004F0C3FE00BF10F0EFFD401B80B20A
:10C6D0004628F9DB23466A464FF48011532004F0C4
:10C6E000B5FEBDE8FF812DE9F843054688461646AC
:10C6F000002000900027F2B239467F1C0DF801207F
:10C7000010F0B1FD0446012D27D100BF10F0ABFDA4
:10C71000001B80B23228F9DB3B466A464146532073
:10C7200004F094FE00BF10F09EFD001B80B23C2878
:10C73000F9DB3B466A464146532004F087FE00BFC2
:10C7400010F091FD001B80B24628F9DB3B466A469B
:10C750004146532004F07AFE28E0032D26D100BF85
:10C7600010F081FD001B80B23228F9DB3B466A469F
:10C770004146442004F06AFE00BF10F074FD001B27
:10C7800080B23C28F9DB3B466A464146442004F02F
:10C790005DFE00BF10F067FD001B80B24628F9DB8C
:10C7A0003B466A464146442004F050FEBDE8F8830B
:10C7B0002DE9F8430546884616460027C6F30722AA
:10C7C00039467F1C0DF80120F2B239467F1C0DF866
:10C7D000012010F048FD0446012D27D100BF10F0C4
:10C7E00042FD001B80B23228F9DB3B466A464146D7
:10C7F000532004F02BFE00BF10F035FD001B80B26B
:10C800003C28F9DB3B466A464146532004F01EFEB5
:10C8100000BF10F028FD001B80B24628F9DB3B4624
:10C820006A464146532004F011FE28E0032D26D12C
:10C8300000BF10F018FD001B80B23228F9DB3B4628
:10C840006A464146442004F001FE00BF10F00BFD93
:10C85000001B80B23C28F9DB3B466A464146442037
:10C8600004F0F4FD00BF10F0FEFC001B80B246286F
:10C87000F9DB3B466A464146442004F0E7FDBDE84B
:10C88000F8832DE9FC4107468846154600200090B4
:10C89000019000262A0E3146761C0DF80120C5F3C2
:10C8A00007423146761C0DF80120C5F307223146B8
:10C8B000761C0DF80120EAB23146761C0DF80120F5
:10C8C00010F0D1FC0446012F27D100BF10F0CBFCA3
:10C8D000001B80B23228F9DB33466A4641465320BA
:10C8E00004F0B4FD00BF10F0BEFC001B80B23C2879
:10C8F000F9DB33466A464146532004F0A7FD00BFEA
:10C9000010F0B1FC001B80B24628F9DB33466A46C2
:10C910004146532004F09AFD28E0032F26D100BFA2
:10C9200010F0A1FC001B80B23228F9DB33466A46C6
:10C930004146442004F08AFD00BF10F094FC001B27
:10C9400080B23C28F9DB33466A464146442004F075
:10C950007DFD00BF10F087FC001B80B24628F9DB8C
:10C9600033466A464146442004F070FDBDE8FC8130
:10C970002DE9F0470446884615461E46B146AA46AC
:10C9800010F071FC0746012C0DD100BF10F06BFCBC
:10C99000C01B80B23228F9DB4B4652464146532039
:10C9A00004F054FD0EE0032C0CD100BF10F05BFC32
:10C9B000C01B80B23228F9DB4B4652464146442028
:10C9C00004F044FDBDE8F0872DE9FF4105460E4621
:10C9D00000242146641C0DF801502146641C0DF80A
:10C9E000016010F062FC87B223466A46052153209D
:10C9F00004F02CFD00BF10F058FC01E030000020D6
:10CA0000C01B80B20A28F6DB23466A460521532064
:10CA100004F01CFD00BF10F048FCC01B80B21428BD
:10CA2000F9DB23466A460521532004F00FFDBDE8DB
:10CA3000FF812DE9FF4105460E4617460024214699
:10CA4000641C0DF801502146641C0DF8016021465C
:10CA5000641C0DF8017010F028FC1FFA80F82346C2
:10CA60006A460521532004F0F1FC00BF10F01DFCC4
:10CA7000A0EB080080B20A28F8DB23466A460521AD
:10CA8000532004F0E3FC00BF10F00FFCA0EB080003
:10CA900080B21428F8DB23466A460521532004F0AF
:10CAA000D5FCBDE8FF812DE9FF4105460E46002774
:10CAB000321239467F1C0DF80120F2B239467F1C34
:10CAC0000DF8012010F0F1FB84B215BB3B466A461D
:10CAD000F905532004F0BAFC00BF10F0E6FB001B80
:10CAE00080B20A28F9DB3B466A464FF0807153203A
:10CAF00004F0ACFC00BF10F0D8FB001B80B214287F
:10CB0000F9DB3B466A464FF08071532004F09EFCEF
:10CB100021E0012D1FD13B466A46FE49532004F017
:10CB200095FC00BF10F0C1FB001B80B20A28F9DBA6
:10CB30003B466A46F749532004F088FC00BF10F0DA
:10CB4000B4FB001B80B21428F9DB3B466A46F1496E
:10CB5000532004F07BFCBDE8FF81EF480068401CD7
:10CB6000ED4908607047EC490860EC490860EC4901
:10CB7000086070472DE9F8430446884600260027E0
:10CB8000E0780090A37862782178E6A019F0F6FAB0
:10CB9000E0790090A37962792179EBA019F0EEFA9F
:10CBA000E07A0090A37A627A217AECA019F0E6FA92
:10CBB000E379A2796179207904F000FB0646B6F5A5
:10CBC000E16F06D1257AFF2D02D10120BDE8F8835F
:10CBD00000E000BF00BF3846F8E72DE9F84F0446F3
:10CBE0000D460026B246B0460020CB490860CC492D
:10CBF000086010F05AFB834610F04FFB5946009036
:10CC000006F05DF805B9ACB14FF416706043B0FBA7
:10CC1000F5F8B8F1000F09DAD5A019F0AFFA002045
:10CC2000BD490860BE490860002500244146D4A0E3
:10CC300019F0A4FA05B11CB90A2010F005FB3EE07A
:10CC4000002010F035FB002010F02AFB10F02DFB27
:10CC50000646B2461CE0002702E005F0F1FF7F1C0B
:10CC6000042FFAD310F021FB0646304618F041FCA1
:10CC7000002708E04FF0000901E009F10109B9F1CE
:10CC8000A80FFAD37F1C4745F4D3304618F031FC87
:10CC90000AEB0400B042DED80020FFF7B4FCA04845
:10CCA00003689D4802683146B7A019F067FA002072
:10CCB000994908609A490860B9A019F05FFABDE87F
:10CCC000F88F2DE9F041054610F0CDFA07462846C9
:10CCD00004F0BCFD06469EB910F0C5FA0446E01B00
:10CCE00041F27071884204D901210846FFF7DBFE4A
:10CCF0000AE000210120FFF7D6FE0020BDE8F08108
:10CD000001210846FFF7CFFE0120F7E72DE9F041AA
:10CD10000746002510F0A7FA0646384605F01AF92E
:10CD20000546C5B910F09FFA0446A11B2A469FA0EC
:10CD300019F024FAA01B41F27071884204D200213C
:10CD40000846FFF7B0FE0AE001210020FFF7ABFE26
:10CD50000020BDE8F08101210020FFF7A4FE0120A2
:10CD6000F7E730B587B00020069005900490039057
:10CD70000290012005F0C0FA10F075FA069093A019
:10CD8000069919F0FBF90121002004F083FF00202F
:10CD900004F0C6FF012004F04CFF022004F049FF1C
:10CDA00010F061FA0690069805900CE010F05BFA1E
:10CDB000069010F07AFA044610F06FFA0546032246
:10CDC000214605F082FEDDE9050132308142EDD9D0
:10CDD00010F049FA069085A0069919F0CFF90121C3
:10CDE00042F2107004F056FF002004F099FF012079
:10CDF00004F01FFF022004F01CFF002010F050FA86
:10CE000010F031FA06900698059022E010F02BFA07
:10CE100006900A210698B0FBF1F201FB120070B9EE
:10CE2000032005F0E7FA049005F092FD0390BDF8A9
:10CE30000C30BDF8102075A0069919F09FF910F07C
:10CE400034FA044610F029FA05460322214605F07B
:10CE50003CFE41F6727105980844323806998842C2
:10CE6000D4D210F000FA06906EA0069919F086F957
:10CE70000121002004F00EFF002004F0DAFE012062
:10CE800004F04EFF022004F04BFF10F0ECF9069086
:10CE90000698059022E010F0E6F906900A2106981F
:10CEA000B0FBF1F201FB120070B9032005F0A2FA09
:10CEB000049005F04DFD0390BDF80C30BDF8102036
:10CEC00052A0069919F05AF910F0EFF9044610F043
:10CED000E4F905460322214605F0F7FD42F25A31F6
:10CEE00005980844A0F5F850723806998842D2D2C5
:10CEF00010F0B9F9069053A0069919F03FF90121F5
:10CF0000002004F0C7FE002004F093FE012004F08E
:10CF100007FFA7E0010000013000002034000020DE
:10CF2000380000200D0A4D53472048616E646C693B
:10CF30006E673A2530325825303258253032582520
:10CF40003032582000000000253032582530325849
:10CF50002530325825303258200000002530325814
:10CF60002530325825303258253032580D0A00000D
:10CF70007573203C20302C20657869740D0A000000
:10CF800075733D25640D0A000D0A743D25642C203F
:10CF9000733D25642C20663D25640D0A00000000C9
:10CFA00053656E64204F7665720D0A004F757420CC
:10CFB00053656C66436865636B3A20743D25303871
:10CFC000642C20733D25640D0A0000000D0A0D0A33
:10CFD000203D3D3D2074696D696E6720313A202502
:10CFE000302E3864203D3D3D200D0A000D0A0D0A0B
:10CFF000203D3D3D2074696D696E6720323A2025E1
:10D00000302E3864203D3D3D200D0A000D0A2025BC
:10D01000302E38643A2025302E35642C2025302ED1
:10D02000356400000D0A0D0A203D3D3D2074696DF8
:10D03000696E6720333A2025302E3864203D3D3D0F
:10D04000200D0A000D0A0D0A203D3D3D2074696D3A
:10D05000696E6720343A2025302E3864203D3D3DEE
:10D06000200D0A00022004F05BFE012005F096FC72
:10D07000012005F0A8FC012005F0BAFC002010F00A
:10D0800017F910F0F0F806900698059029E010F0D6
:10D09000EAF806900A210698B0FBF1F201FB1200B3
:10D0A000A8B9032005F0A6F9049005F051FC0390FF
:10D0B000002005F09FF90290BDF808000090BDF82F
:10D0C0000C30BDF81020F8A0069919F057F810F0B0
:10D0D000ECF8044610F0E1F805460322214605F07D
:10D0E000F4FC45F6F25105980844A0F50C505A3866
:10D0F00006998842CBD2002005F050FC002005F0B4
:10D1000062FC002005F074FC10F0ADF80690EFA072
:10D11000069919F033F80121002004F0BBFD00202E
:10D1200004F087FD10F09FF806900698059023E024
:10D1300010F099F806900A210698B0FBF1F201FB75
:10D14000120078B9032005F055F9049005F000FCB1
:10D150000390BDF80C30BDF81020AFF250100699C6
:10D1600019F00CF810F0A1F8044610F096F80546F6
:10D170000322214605F0A9FC46F6AA1105980844A9
:10D18000A0F5BA40F23806998842D1D210F06BF877
:10D190000690D6A0069918F0F1FF0121002004F0B6
:10D1A00079FD002004F045FD10F05DF8069006982A
:10D1B00005900CE010F057F8069010F076F8044651
:10D1C00010F06BF805460322214605F07EFC46F67A
:10D1D000DC1105980844A0F5D240AA380699884287
:10D1E000E8D210F040F80690C8A0069918F0C6FFE3
:10D1F00010F039F80690069805900CE010F033F81E
:10D20000069010F052F8044610F047F80546032245
:10D21000214605F05AFC47F6645105980844A0F5EC
:10D22000D240DC3806998842E8D20121002004F07F
:10D2300031FD002004F0FDFC012004F0FAFC022086
:10D2400004F0F7FC012005F0A9FB002007B030BD79
:10D250002DE9FC4781460E46012400250020009060
:10D26000019000BF4BE0012004F05AFD40F2EE2097
:10D270000FF0EAFF012004F0DCFC40F2EE200FF09A
:10D28000E3FF05222846691CCDB20DF800200022DC
:10D290002846691CCDB20DF80020220E2846691CD4
:10D2A000CDB20DF80020C4F307422846691CCDB268
:10D2B0000DF80020C4F307222846691CCDB20DF8F2
:10D2C0000020E2B22846691CCDB20DF800202B46A2
:10D2D0006A4605210120FFF74BFB0025214693A05C
:10D2E00018F04CFF0FF0E1FF07460FF0D6FF804625
:10D2F000394605F0E4FC012800D102E0641CB44288
:10D30000B1D900BFBDE8FC872DE9F04389B00746DD
:10D310000E460124FF200890FE200790FF20069073
:10D32000FE2005900020049000250290039088487C
:10D33000007800284AD1012004F00CFE60B90120D9
:10D3400005F0F0FA05904FF4FA6005F068F90790DF
:10D3500080A018F013FF39E004222846691CCDB2E2
:10D3600002A90A5402222846691CCDB202A90A5415
:10D37000601C420E2846691CCDB202A90A54601CEA
:10D380004008C0F307422846691CCDB202A90A54DE
:10D39000601C4008C0F307222846691CCDB202A9D0
:10D3A0000A54601CC0F347022846691CCDB202A98A
:10D3B0000A542B4602AA74490120FFF7D9FA002526
:10D3C00072A018F0DBFE09B0BDE8F083012457E23B
:10D3D0005F480078012866D104F0BCFDF0B9012057
:10D3E00005F0A0FA06904FF4FA6005F018F90890DD
:10D3F0009DF814009DF81810CDE90010601C41083C
:10D400009DF81C309DF820206C4818F0B7FE9DF860
:10D41000180005909DF820000790D1E004222846CE
:10D42000691CCDB202A90A5402222846691CCDB259
:10D4300002A90A54601C420E2846691CCDB202A9FA
:10D440000A54601C4008C0F307422846691CCDB24C
:10D4500002A90A54601C4008C0F307222846691C30
:10D46000CDB202A90A54601CC0F347022846691CC9
:10D47000CDB202A90A542B4602AA43490120FFF764
:10D4800077FA00259DF814009DF81810CDE90010DA
:10D49000601C41089DF81C309DF8202047486830EA
:10D4A00018F06CFE8FE797E00D0A2025302E3864C7
:10D4B0003A2025302E35642C2025302E35642C2042
:10D4C000484742203D2025302E3564000D0A0D0AC4
:10D4D000203D3D3D2074696D696E6720353A2025F9
:10D4E000302E3864203D3D3D200D0A000D0A0D0A06
:10D4F000203D3D3D2074696D696E6720363A2025D8
:10D50000302E3864203D3D3D200D0A000D0A0D0AE5
:10D51000203D3D3D2074696D696E6720373A2025B6
:10D52000302E3864203D3D3D200D0A00506172745C
:10D530005F546573745F56616C76653A20737563EA
:10D54000636573732C20693D25640D0A000000009B
:10D5500054010020506172745F546573745F5742C8
:10D56000435F416E645F436865636B5F456C6563F1
:10D570003A206D6F746F206F7574207375636365E7
:10D5800073730D0A000000000807000150617274F7
:10D590005F546573745F5742435F416E645F4368D5
:10D5A00065636B5F456C65633A206D6F746F206FC8
:10D5B0007574206572726F7200000000F4660208D4
:10D5C0000FF073FE80460FF068FE8146414605F07D
:10D5D00076FB01287ED157E1FB4800780228F9D17B
:10D5E000012004F033F9002875D1C8200FF02CFE7B
:10D5F000012005F097F906904FF4FA6005F00FF856
:10D600000890002004909DF814009DF8181088429E
:10D6100010D1032004909DF814009DF81810CDE956
:10D620000010601C41089DF81C309DF82020E74840
:10D6300018F0A4FD9DF81C009DF82010884228D108
:10D640009DF81000032812D1052004909DF81400C5
:10D650009DF81810CDE90010601C41089DF81C30A1
:10D660009DF82020D948783018F088FD11E004207A
:10D6700004909DF814009DF81810CDE90010601C6E
:10D6800041089DF81C309DF82020D048F83018F053
:10D6900075FD9DF81000E0BB04222846691CCDB240
:10D6A00002A90A549DF810202846691CCDB202A98F
:10D6B0000A54601C420E2846691CCDB202A90A54C5
:10D6C000601C4008C0F307422846691CCDB202A97D
:10D6D0000A5401E0C7E075E0601C4008C0F307226F
:10D6E0002846691CCDB202A90A54601CC0F3470247
:10D6F0002846691CCDB202A90A542B4602AAB44995
:10D700000120FFF735F900259DF814009DF8181049
:10D7100000E00BE0CDE90010601C41089DF81C30D2
:10D720009DF82020AB4818F029FD44E0042228464B
:10D73000691CCDB202A90A549DF810202846691C24
:10D74000CDB202A90A54601C420E2846691CCDB213
:10D7500002A90A54601C4008C0F307422846691C0D
:10D76000CDB202A90A54601C4008C0F30722294622
:10D77000681CC5B202A84254601CC0F34702284688
:10D78000691CCDB202A90A542B4602AA9049012075
:10D79000FFF7EEF800259DF814009DF81810CDE96C
:10D7A0000010601C41089DF81C309DF8202089481D
:10D7B000743018F0E3FC9DF8180005909DF82000E7
:10D7C000079044E004222846691CCDB202A90A54FD
:10D7D00002222846691CCDB202A90A54601C420EDE
:10D7E0002946681CC5B202A84254601C4008C0F318
:10D7F00007422846691CCDB202A90A54601C4008A1
:10D80000C0F307222846691CCDB202A90A54601C45
:10D81000C0F347022946681CC5B202A842542B46F1
:10D8200002AA6B490120FFF7A3F800259DF8140018
:10D830009DF81810CDE90010601C41089DF81C30BF
:10D840009DF820206148683818F098FCBBE50FF07F
:10D850002CFD80460FF021FD8146414605F02FFA50
:10D86000012800D110E00FF020FD80460FF015FDDB
:10D870008146414605F023FA012800D104E0641CEA
:10D88000B4EB460F7FF6A4AD00BF610852A018F0BC
:10D8900075FC00BF97E530B585B00020049003907B
:10D8A000029001900090012104F0F4F9002004F0AE
:10D8B000C0F9012004F0BDF9052004F0F7FA049046
:10D8C0000FF0D1FC03900398029050488368DDE983
:10D8D0000220811A4EA0049A18F050FC5A4904986C
:10D8E00088426FDA012142F2107004F0D3F900206F
:10D8F00004F016FA012004F09CF90FF0B4FC039038
:10D9000003980190039800902FE00FF0ACFC039077
:10D9100000990398401A0A281DD303980090052007
:10D9200004F0C4FA04904849049888420ADB0020B5
:10D9300004F07FF9012004F07CF90121002004F0BB
:10D94000A9F919E031488368DDE90220811A3FA076
:10D95000049A18F013FC0FF0A8FC04460FF09DFC8D
:10D9600005460322214605F0B0F843F698220199B6
:10D97000114403988842C8D900BF002004F059F927
:10D98000012004F056F90121002004F083F943F648
:10D990009822019911440398884214D90FF063FC2E
:10D9A00003901A488368DDE90220811A35A0049AA1
:10D9B00018F0E4FB012242491046FEF7F9FE0498F4
:10D9C00005B030BD7EE080E054010020C46702084D
:10D9D0000807000130690208506172745F54657372
:10D9E000745F5742435F416E645F436865636B5F7A
:10D9F000456C65633A20546573742046696E69739B
:10DA00006865642C20693D25640D0A00D01800204B
:10DA10004275696C642073746172743A207469632E
:10DA20006B3D253038642C2070726573733D253052
:10DA30003130642C2061646470726573733D2530ED
:10DA40003130640D0A0000008085B50D4275696CA7
:10DA500064696E67205072657373207469636B3DEF
:10DA6000253038642C2070726573733D2530313059
:10DA7000642C2061646470726573733D25303130AD
:10DA8000640D0A004275696C6420507265737320DE
:10DA90004661696C3A207469636B3D253038642CAB
:10DAA0002070726573733D25303130642C206164C1
:10DAB0006470726573733D25303130640D0A000067
:10DAC000030000010FF0CFFB0390EF488368DDE90E
:10DAD0000220811AEDA0049A18F050FB0022FB49A5
:10DAE0000120FEF765FE049805B030BD2DE9FC5F0E
:10DAF0008046FFF7D0FE044640F2DC500FF0A4FB56
:10DB0000FFF7C9FE04464FF47A700FF09DFB002426
:10DB1000052004F0CBF90446ED4884420EDA0122D8
:10DB2000EA49491C1046FEF743FED7482146826861
:10DB3000E8A018F023FB0120BDE8FC9F0FF093FB49
:10DB400005462F46A946D048224629468368F1A0BB
:10DB500018F014FBB8F1020F05D1002004F069F8A9
:10DB6000012004F0DDF82DE00FF07DFB0546A5EB6C
:10DB700009000A2826D3A9460026052004F096F9B4
:10DB80000646F3482044864203DCF148201AB0429E
:10DB900009DDBD4880682346324629460090ED489D
:10DBA00018F0ECFA13E0B8F1020F0BD10FF07DFB87
:10DBB00082460FF072FB8346514605F080F801283B
:10DBC00000D104E044F6206038448542CCD900BF3F
:10DBD000B8F1020F05D1002004F02BF8012004F069
:10DBE00028F844F620603844854213D20122B74910
:10DBF000491C1046FEF7DCFDA3488068A11B2346A4
:10DC00003246CDE900102946D2484C3018F0B6FA19
:10DC1000012091E70022AD49491C0120FEF7C8FD13
:10DC200099488068A11B23463246CDE90010294659
:10DC3000C848A43018F0A2FA00207DE72DE9FC477F
:10DC400007460E4601250024002000900190C2489E
:10DC50000078002842D1012004F07CF928B9681C22
:10DC60004108BEA018F08AFA38E003222046611C61
:10DC7000CCB20DF8002002222046611CCCB20DF877
:10DC80000020681C420E2046611CCCB20DF800201A
:10DC9000681C4008C0F307422046611CCCB20DF856
:10DCA0000020681C4008C0F307222046611CCCB24B
:10DCB0000DF80020681CC0F347022046611CCCB25E
:10DCC0000DF8002023466A46B0490120FEF750FEB9
:10DCD0000024AFA018F052FABDE8FC87012544E209
:10DCE0009D48007801284ED104F034F928B9681C09
:10DCF00041089AA018F042FA39E003222046611C3C
:10DD0000CCB20DF8002002222046611CCCB20DF8E6
:10DD10000020681C420E2146601CC4B20DF8012090
:10DD2000681C4008C0F307422046611CCCB20DF8C5
:10DD30000020681C4008C0F307222046611CCCB2BA
:10DD40000DF80020681CC0F347022046611CCCB2CD
:10DD50000DF8002023466A468C490120FEF708FE94
:10DD60000024681C410894A018F008FAB4E70FF0EA
:10DD70009CFA80460FF091FA8146414604F09FFFDD
:10DD800001287DD1F5E174480078022879D101207D
:10DD900003F05CFD002875D1681C410891A018F0C3
:10DDA000EDF90220FFF7A2FE012838D10322204618
:10DDB000611CCCB20DF8002001222046611CCCB2BF
:10DDC0000DF80020681C420E2046611CCCB20DF8F4
:10DDD0000020681C4008C0F307422046611CCCB2FA
:10DDE0000DF80020681C4008C0F307222146601C83
:10DDF000C4B20DF80120681CC0F347022046611C24
:10DE0000CCB20DF8002023466A4660490120FEF797
:10DE1000AFFD002469087DA018F0B0F94DE10322A0
:10DE20002046611CCCB20DF8002000222046611C67
:10DE3000CCB20DF80020681C420E2046611CCCB20A
:10DE40000DF80020681C4008C0F307422046611C02
:10DE5000CCB20DF80020681C4008C0F30722204611
:10DE6000611CCCB20DF80020681CC0F347022146AB
:10DE7000601CC4B20DF8012023466A464349D9E02C
:10DE800066E12BE1DFE00000D01800204275696CEC
:10DE90006420707265737320737563636573733A7E
:10DEA000207469636B3D253038642C207072657373
:10DEB000733D25303130642C206164647072657369
:10DEC000733D25303130640D0A000000030000016D
:10DED0008058840C4169724C696768742066616976
:10DEE0006C284275696C64205072657373204572AA
:10DEF000726F72293A2050726573733D253031304C
:10DF0000642C2061646470726573733D2530313018
:10DF1000640D0A004169724C69676874207374610A
:10DF200072743A207469636B733D253038642C2019
:10DF300070726573733D25303130642C20616464E8
:10DF400070726573733D25303130640D0A00000036
:10DF5000002D3101186A02085401002050617274CA
:10DF60005F546573745F4169724661756365743AA5
:10DF7000206D6F746F206F757420737563636573A4
:10DF8000732C20693D25640D0A000000080700017C
:10DF9000506172745F546573745F41697246617554
:10DFA0006365743A206D6F746F206F7574206572AD
:10DFB000726F720D0A000000506172745F546573D5
:10DFC000745F4169724661756365743A206D6F7460
:10DFD0006F206F7574206572726F722C20693D25F9
:10DFE000640D0A00506172745F546573745F416917
:10DFF000724661756365743A206D6F746F20696E47
:10E000002C20693D25640D0A0000000050617274E7
:10E010005F546573745F4169724661756365743AF4
:10E02000206661696C7572652C20693D25640D0A56
:10E03000000000000120FEF79BFC00246908FEA000
:10E0400018F09CF839E003222046611CCCB20DF890
:10E05000002002222046611CCCB20DF80020681C72
:10E06000420E2046611CCCB20DF80020681C40080E
:10E07000C0F307422046611CCCB20DF80020681C9A
:10E080004008C0F307222046611CCCB20DF80020E6
:10E09000681CC0F347022046611CCCB20DF800207A
:10E0A00023466A46EE490120FEF762FC0024681C04
:10E0B0004108ECA018F062F80EE6681C4108F4A0D4
:10E0C00018F05CF80FF0F1F880460FF0E6F88146A2
:10E0D000414604F0F4FD01283AD14AE0681C4108A9
:10E0E000F8A018F04BF803222046611CCCB20DF8C2
:10E0F000002001222146601CC4B20DF80120681CDA
:10E10000420E2046611CCCB20DF80020681C40086D
:10E11000C0F307422046611CCCB20DF80020681CF9
:10E120004008C0F307222046611CCCB20DF8002045
:10E13000681CC0F347022046611CCCB20DF80020D9
:10E14000002423466A46C6490120FEF711FCC3E5B8
:10E150000FF0ABF880460FF0A0F88146414604F07E
:10E16000AEFD012800D104E06D1CB5EB460F7FF633
:10E17000B7AD00BF6908E0A018F000F800BFABE53C
:10E180002DE9FC5F81460F460125FF264FF0FE0872
:10E190000024002000900190E2480078002847D138
:10E1A000012003F0D7FE48B9012004F0BBFB8046F4
:10E1B000681C4108DCA017F0E1FF39E0022220468C
:10E1C000611CCCB20DF800202046611CCCB20DF8C9
:10E1D0000020681C420E2046611CCCB20DF80020C5
:10E1E000681C4008C0F307422046611CCCB20DF801
:10E1F0000020681C4008C0F307222046611CCCB2F6
:10E200000DF80020681CC0F347022046611CCCB208
:10E210000DF8002023466A4691490120FEF7A8FB2D
:10E220000024681C4108CCA017F0A8FFBDE8FC9FA3
:10E23000012552E2BB480078012854D103F08AFE40
:10E2400060B9012004F06EFB0646681C4308424694
:10E250003146CDA017F092FFB04638E002222046AA
:10E26000611CCCB20DF800202046611CCCB20DF828
:10E270000020681C420E2046611CCCB20DF8002024
:10E28000681C4008C0F307422046611CCCB20DF860
:10E290000020681C4008C0F307222046611CCCB255
:10E2A0000DF80020681CC0F347022146601CC4B270
:10E2B0000DF8012023466A4669490120FEF758FB04
:10E2C0000024681C4108A4A017F058FFAEE70EF028
:10E2D000ECFF82460EF0E1FF8346514604F0EFFC6E
:10E2E00001287DD1FDE18F480078022879D10120F5
:10E2F00003F0ACFA002875D1012004F013FB0646A8
:10E30000B0453BD102222046611CCCB20DF8002062
:10E3100001222046611CCCB20DF80020681C420E80
:10E320002046611CCCB20DF80020681C4008C0F3E8
:10E3300007422146601CC4B20DF80120681C400849
:10E34000C0F307222046611CCCB20DF80020681CE7
:10E35000C0F347022046611CCCB20DF800202346D2
:10E360006A463F490120FEF703FB0024681C43086E
:10E3700042463146924817F001FF3EE00222214614
:10E38000601CC4B20DF8012000222046611CCCB2F2
:10E390000DF80020681C420E2046611CCCB20DF81E
:10E3A0000020681C4008C0F307422046611CCCB224
:10E3B0000DF80020681C4008C0F307222046611CAD
:10E3C000CCB20DF80020681CC0F347022046611C47
:10E3D000CCB20DF8002023466A462149012002E014
:10E3E0006EE134E10BE0FEF7C3FA0024681C430839
:10E3F0004246314673A017F0C1FEB0461BE102222F
:10E400002046611CCCB20DF800202046611CCCB225
:10E410000DF80020681C420E2146601CC4B20DF8A5
:10E420000120681C4008C0F307422046611CCCB2A2
:10E430000DF80020681CE1E0506172745F54657350
:10E44000745F4169724661756365743A20737563E0
:10E45000636573732C20693D25640D0A000000007C
:10E4600008070001506172745F546573745F4169FD
:10E47000724661756365743A206D6F746F20696EC2
:10E48000206572726F722C20693D25640D0A0000B0
:10E49000506172745F546573745F4169724661754F
:10E4A0006365743A206166746572206169726C6993
:10E4B00067687420636865636B2C20693D25640D73
:10E4C0000A000000506172745F546573745F4169A3
:10E4D000724661756365743A206D6F746F20706F5A
:10E4E000736974696F6E206572726F722C20693D5A
:10E4F00025640D0A00000000506172745F5465735A
:10E50000745F4169724661756365743A205465733E
:10E51000742046696E69736865642C20693D2564C2
:10E520000D0A000054010020506172745F5465733D
:10E53000745F436865636B5F456C65633A206D6F1C
:10E54000746F206F757420737563636573732C200B
:10E55000693D25640D0A0000506172745F54657353
:10E56000745F436865636B5F456C65633A206D6FEC
:10E57000746F206F7574206572726F722C20693D04
:10E5800025640D0A00000000506172745F546573C9
:10E59000745F436865636B5F456C65633A206D6FBC
:10E5A000746F206F75742C54656D703D25642C203C
:10E5B000466C61673D25642C20693D25640D0A0089
:10E5C000186B0208506172745F546573745F43681E
:10E5D00065636B5F456C65633A206D6F746F20698E
:10E5E0006E2C54656D703D25642C20466C61673D32
:10E5F00025642C20693D25640D0A00004008C0F305
:10E6000007222046611CCCB20DF80020681CC0F324
:10E6100047022046611CCCB20DF8002023466A4612
:10E62000F9490120FEF7A4F90024681C4108F7A06D
:10E6300017F0A4FDFAE50EF038FE82460EF02DFE2E
:10E640008346514604F03BFB012839D149E00222C0
:10E650002046611CCCB20DF800202046611CCCB2D3
:10E660000DF80020681C420E2046611CCCB20DF84B
:10E670000020681C4008C0F307422046611CCCB251
:10E680000DF80020681C4008C0F307222046611CDA
:10E69000CCB20DF80020681CC0F347022046611C74
:10E6A000CCB20DF8002023466A46D7490120FEF778
:10E6B0005FF90024681C4108DFA017F05FFDB5E595
:10E6C0000EF0F3FD82460EF0E8FD8346514604F05D
:10E6D000F6FA012800D104E06D1CB5EB470F7FF678
:10E6E000A9AD00BF6908E0A017F048FD00BF9DE597
:10E6F0002DE9FC5F81460F460125FF264FF0FE08FD
:10E700000024002000900190E2480078002846D1C3
:10E71000012003F01FFC40B94FF4FA6003F07FFFC3
:10E720008046DDA017F02AFD39E001222046611C59
:10E73000CCB20DF8002002222046611CCCB20DF8AC
:10E740000020681C420E2046611CCCB20DF800204F
:10E75000681C4008C0F307422046611CCCB20DF88B
:10E760000020681C4008C0F307222046611CCCB280
:10E770000DF80020681CC0F347022046611CCCB293
:10E780000DF8002023466A469F490120FEF7F0F865
:10E7900000246908CAA017F0F1FCBDE8FC9F012520
:10E7A0001FE2BC480078012856D103F0D3FB68B9BA
:10E7B0004FF4FA6003F033FF0646681C43084246F4
:10E7C0003146CAA017F0DAFCB04639E001222046F3
:10E7D000611CCCB20DF8002002222046611CCCB294
:10E7E0000DF80020681C420E2046611CCCB20DF8CA
:10E7F0000020681C4008C0F307422046611CCCB2D0
:10E800000DF80020681C4008C0F307222046611C58
:10E81000CCB20DF80020681CC0F347022046611CF2
:10E82000CCB20DF8002023466A4677490120FEF756
:10E830009FF80024681C4108A1A017F09FFCACE7DA
:10E840000EF033FD82460EF028FD8346514604F05B
:10E8500036FA01287ED1C8E18E48007802287AD1A4
:10E86000012002F0F3FF002876D1C8200EF0ECFC66
:10E870004FF4FA6003F0D3FE0646B0453AD10122C8
:10E880002046611CCCB20DF800202046611CCCB2A1
:10E890000DF80020681C420E2046611CCCB20DF819
:10E8A0000020681C4008C0F307422046611CCCB21F
:10E8B0000DF80020681C4008C0F307222046611CA8
:10E8C000CCB20DF80020681CC0F347022146601C42
:10E8D000C4B20DF8012023466A464B490120FEF7D9
:10E8E00047F80024681C4308424631468D4817F01B
:10E8F00045FC3FE001222046611CCCB20DF800200F
:10E9000000222046611CCCB20DF80020681C420E8B
:10E910002046611CCCB20DF80020681C4008C0F3F2
:10E9200007422046611CCCB20DF80020681C40084C
:10E93000C0F307222046611CCCB20DF80020681CF1
:10E94000C0F347022146601CC4B20DF801202346E3
:10E950006A4602E056E0FDE00EE02B490120FEF79A
:10E9600007F80024681C4308424631466D4844308D
:10E9700017F004FCB04639E001222146601CC4B205
:10E980000DF8012002222046611CCCB20DF80020B7
:10E99000681C420E2046611CCCB20DF80020681C99
:10E9A0004008C0F307422046611CCCB20DF800209D
:10E9B000681C4008C0F307222046611CCCB20DF849
:10E9C0000020681CC0F347022046611CCCB20DF841
:10E9D000002023466A460C490120FDF7C9FF0024A8
:10E9E000681C410850A017F0C9FBD6E60EF05DFC8C
:10E9F00082460EF052FC8346514604F060F901282D
:10EA000000D1F2E0E0E000000807000150617274FC
:10EA10005F546573745F436865636B5F456C6563E2
:10EA20003A206D6F746F20696E206572726F722C60
:10EA300020693D25640D0A00506172745F5465734E
:10EA4000745F436865636B5F456C65633A20706F04
:10EA5000736974696F6E206572726F722C20693DE4
:10EA600025640D0A00000000506172745F546573E4
:10EA7000745F436865636B5F456C65633A205465FA
:10EA800073742046696E69736865642C20693D253E
:10EA9000640D0A0054010020506172745F54657364
:10EAA000745F5742435F456C65633A206D6F746FC6
:10EAB000206F757420737563636573730D0A0000AE
:10EAC000506172745F546573745F5742435F456C65
:10EAD00065633A206D6F746F206F75742065727274
:10EAE0006F722C20693D25640D0A0000506172741C
:10EAF0005F546573745F5742435F456C65633A20AA
:10EB00006D6F746F206F75742C54656D703D256446
:10EB10002C20466C61673D25642C20693D25640DE1
:10EB20000A0000005C6B0208506172745F546573E8
:10EB3000745F5742435F456C65633A206D6F746F35
:10EB400020696E206572726F722C20693D25640DFC
:10EB50000A00000001222046611CCCB20DF8002002
:10EB600002222046611CCCB20DF80020681C420E27
:10EB70002046611CCCB20DF80020681C4008C0F390
:10EB800007422046611CCCB20DF80020681C4008EA
:10EB9000C0F307222046611CCCB20DF80020681C8F
:10EBA000C0F347022046611CCCB20DF8002023467A
:10EBB0006A46F8490120FDF7DBFE0024681C410885
:10EBC000F5A017F0DBFAE8E50EF06FFB82460EF0D9
:10EBD00064FB8346514604F072F8012800D104E03A
:10EBE0006D1CB5EB470F7FF6DCAD00BF6908F5A0E3
:10EBF00017F0C4FA00BFD0E52DE9FC4707460E46E2
:10EC000001250024002000900190F9480078002898
:10EC100042D1012003F09EF918B9F6A017F0AEFA20
:10EC20003AE000222046611CCCB20DF800200122FF
:10EC30002046611CCCB20DF80020681C420E204614
:10EC4000611CCCB20DF80020681C4008C0F30742DC
:10EC50002046611CCCB20DF80020681C4008C0F3AF
:10EC600007222046611CCCB20DF80020681CC0F3BE
:10EC700047022046611CCCB20DF8002023466A46AC
:10EC8000C4490120FDF774FE0024681C4108E2A07D
:10EC900017F074FABDE8FC87012524E1D448007818
:10ECA000012876D103F056F9002838D100222146F8
:10ECB000601CC4B20DF801202046611CCCB20DF8D6
:10ECC0000020681C420E2046611CCCB20DF80020CA
:10ECD000681C4008C0F307422046611CCCB20DF806
:10ECE0000020681C4008C0F307222046611CCCB2FB
:10ECF0000DF80020681CC0F347022046611CCCB20E
:10ED00000DF8002023466A46A2490120FDF730FE97
:10ED10000024681C4108CBA017F030FA3AE000222A
:10ED20002046611CCCB20DF8002001222046611C57
:10ED3000CCB20DF80020681C420E2046611CCCB2FB
:10ED40000DF80020681C4008C0F307422046611CF3
:10ED5000CCB20DF80020681C4008C0F30722204602
:10ED6000611CCCB20DF80020681CC0F3470220469D
:10ED7000611CCCB20DF8002023466A46854901206B
:10ED8000FDF7F6FD0024681C4108A3A017F0F6F972
:10ED900080E70BE00EF089FA80460EF07EFA81469D
:10EDA000414603F08CFF01287ED1A0E09048007816
:10EDB00002284FD1012002F049FD28B9681C410802
:10EDC000ABA017F0DBF939E000222046611CCCB281
:10EDD0000DF8002001222046611CCCB20DF8002065
:10EDE000681C420E2046611CCCB20DF80020681C45
:10EDF0004008C0F307422046611CCCB20DF8002049
:10EE0000681C4008C0F307222046611CCCB20DF8F4
:10EE10000020681CC0F347022046611CCCB20DF8EC
:10EE2000002023466A465B490120FDF7A1FD00242E
:10EE3000681C410899A017F0A1F92BE70EF035FAEC
:10EE400080460EF02AFA8146414603F038FF012839
:10EE50003CD14CE000222046611CCCB20DF80020D1
:10EE600001222046611CCCB20DF80020681C420E25
:10EE70002046611CCCB20DF80020681C4008C0F38D
:10EE800007422046611CCCB20DF80020681C4008E7
:10EE9000C0F307222046611CCCB20DF80020681C8C
:10EEA000C0F34702204600E010E0611CCCB20DF830
:10EEB000002023466A4637490120FDF759FD00240A
:10EEC000681C41087FA017F059F9E3E60EF0EDF950
:10EED00080460EF0E2F98146414603F0F0FE01283B
:10EEE00000D104E06D1CB5EB460F7FF6D7AE00BF36
:10EEF00069087FA017F042F900BFCBE670B5044661
:10EF00000D462A46214684A017F038F9FF2C03D17C
:10EF100015B98A4817F032F9062C22D2DFE804F03E
:10EF200003080D12171C29462046FFF765FE19E05D
:10EF300029462046FFF7DCFB14E029462046FFF770
:10EF40001FF90FE029462046FEF778FE0AE0294621
:10EF50002046FEF7D9F900BF29462046FEF778F98A
:10EF600000E000BF00BF012002F070FC70BD2DE981
:10EF7000F0410EF078F905460026EBE00EF073F94B
:10EF8000044603F06DFA07466D48611B3A468368F4
:10EF9000D8E0000008070001506172745F54657387
:10EFA000745F5742435F456C65633A20706F7369C5
:10EFB00074696F6E206572726F722C20693D2564D2
:10EFC0000D0A0000506172745F546573745F57429C
:10EFD000435F456C65633A20546573742046696EDF
:10EFE00069736865642C20693D25640D0A00000082
:10EFF00054010020506172745F546573745F4D6FEB
:10F00000746F5F583A206D6F746F206F7574207342
:10F010007563636573730000506172745F54657348
:10F02000745F4D6F746F5F583A206D6F746F206F0F
:10F030007574206572726F722C20693D25640D0A0B
:10F0400000000000506172745F546573745F4D6F0F
:10F05000746F5F583A206D6F746F206F75742073F2
:10F060007563636573732C20693D25640D0A000088
:10F07000506172745F546573745F4D6F746F5F5845
:10F080003A206D6F746F20696E20737563636573CA
:10F09000732C20693D25640D0A00000050617274D4
:10F0A0005F546573745F4D6F746F5F583A206D6F76
:10F0B000746F20696E206572726F722C20693D2515
:10F0C000640D0A00506172745F546573745F4D6F14
:10F0D000746F5F583A20706F736974696F6E206542
:10F0E00072726F722C20693D25640D0A00000000C9
:10F0F000506172745F546573745F4D6F746F5F58C5
:10F100003A20546573742046696E69736865642C8F
:10F1100020693D25640D0A00506172745F54657367
:10F12000745F457865633A204E6F3D25642C204E10
:10F13000756D203D2025640D0A00000078CF000881
:10F14000D0180020F6A017F019F80A200EF07CF86D
:10F15000701C86B20A2EFFF611AF3A46002101203C
:10F16000FDF78FFBFE48611B3A468368FDA017F050
:10F1700005F8BDE8F08110B500240FE0012002F091
:10F18000CFFD4FF47A700EF05FF8012002F051FDD0
:10F190004FF47A700EF058F8601CC4B2032CEDDB0B
:10F1A000002010BD10B500240FE0002002F0B8FDD3
:10F1B0004FF47A700EF048F8002002F03AFD4FF458
:10F1C0007A700EF041F8601CC4B2032CEDDB002015
:10F1D00010BD70B5002400250EF045F80446254604
:10F1E000012142F2107002F055FD05E00EF03BF8EF
:10F1F000054601200EF028F8281B41F2883188428C
:10F20000F4D90121002002F045FD002070BD70B549
:10F2100003F0F1F905464FF4D37068431621B0FBB3
:10F22000F1F422462946DFA016F0A8FF4AF6C8707E
:10F23000844209D34DF2D860844205D80022E349C4
:10F240000120FDF7B5FA04E00122E0491046FDF780
:10F25000AFFA204670BD70B504460D46012D08D1A9
:10F260000CB1012C03D1204603F05CF90BE0012026
:10F2700070BD45B90CB1012C03D1204603F058F9FB
:10F2800001E00120F4E70020F2E710B5002002F0D1
:10F29000D0F938B1CEA016F071FF0620FDF7B3F912
:10F2A000022010BD03F093F941F29411884207D275
:10F2B000D2A016F063FF0B20FDF7A5F90220F0E7BE
:10F2C000012003F02FF9012003F0DBF932200DF0CB
:10F2D000BBFFD2A016F052FF40F20641D34816F011
:10F2E000CCFC0120D14908701BE0D04840780128AF
:10F2F00017D1CE4A5188CA1701EB1262101200EBE7
:10F30000D0725210B0EB420206D14FF48071C74860
:10F31000801D03F052FA04E04FF48071C44803F0FA
:10F320004CFAC2484088B0F5966FDEDDBF48808851
:10F33000B0B1BE4A5188CA1701EB1262101200EB3D
:10F34000D0725210B0EB420205D1B8488188801DBE
:10F3500003F033FA04E0B5488188B54803F02DFA8C
:10F3600040F20641B14816F088FC0020AF49087011
:10F3700003F087F9012003F0DBF80020FDF743F9E3
:10F3800000208EE738B50020009002F052F938B125
:10F390008FA016F0F3FE0620FDF735F9022038BDE8
:10F3A00003F001F941F29411884207DAA1A016F0A6
:10F3B000E5FE0B20FDF727F90220F0E7002003F01F
:10F3C000B1F8012003F05CF932200DF03DFFA1A05F
:10F3D00016F0D4FE00240DE003F054F9BDF800103F
:10F3E000084480B20090BDF800109EA016F0C6FE42
:10F3F000601C84B20A2CEFDBBDF800000A2190FBF0
:10F40000F1F080B20090BDF8001098A016F0B6FEA2
:10F41000BDF8000041F28831484340F6FF7190FB8F
:10F42000F1F080B20090BDF8001095A016F0A6FE95
:10F43000002003F025F9002003F07AF80121684646
:10F4400003F089F90020FDF7DEF80020A7E72DE999
:10F45000F04106460C4615460027288840F2DC514C
:10F46000884201DBBDE8F0810CE014F8010B06F8DE
:10F47000010B781C07B2962F04DB962783A016F0A9
:10F480007DFE02E020780028EFD100BF28883844B4
:10F49000288000BFE6E707B5C2B000204190409049
:10F4A0003F903E903D903C903B903A903990389000
:10F4B000379036903590FF2034900020339098217B
:10F4C0000DA816F0DAFB00200C90BDF83010439820
:10F4D00001800020FDF747FB0DF0C5FE3A90714812
:10F4E000016871A016F04AFE00200C904422BDF87D
:10F4F0003000411C89B2CDE90B0142990A545322D4
:10F50000BDF83000411C89B2CDE90B0142990A5483
:10F510005722BDF83000411C89B2CDE90B01DDE076
:10F5200052657475726E5F50726573735F56616C6D
:10F530007565207469636B733D253038642C2070C9
:10F54000726573733D25303130642C2061646470C2
:10F55000726573733D25303130640D0A0000000080
:10F56000D018002052657475726E5F5072657373A7
:10F570005F56616C7565207469636B733D25303926
:10F58000642C2070726573733D25303130642C20FB
:10F5900061646470726573733D25303130640D0AA7
:10F5A000000000005742435F34385620536C6566B4
:10F5B00020436865636B3A207762635F763D25641C
:10F5C0002C203438763D25640D0A0000020000012D
:10F5D000436F756E74204572726F723A204D5420DD
:10F5E00078206E6F7420617420686F6D6520706F75
:10F5F000736974696F6E0D0A00000000436F756EC9
:10F6000074204572726F723A20435250205620691E
:10F61000732077726F6E670D0A0000004352505FCF
:10F62000546573745F457865633A0000E601002015
:10F63000EC030020436F756E74204572726F723A4E
:10F640002048474220562069732077726F6E670DFD
:10F650000A0000004847425F546573745F4578654F
:10F66000633A00004144433D25642C000D0A48479D
:10F6700042204144435F4176653A20256400000002
:10F680000D0A4847425F563A2025640074656D7044
:10F6900020627566206973206F76657220666C6FD4
:10F6A000770D0A002C0000200D0A2D2D2D2D2D2D5B
:10F6B0002D2D2D2D2D2D2D2D2D2D2D2D5374617294
:10F6C0007420436F756E743A206E756D3D25642D00
:10F6D0002D2D2D2D2D2D2D2D2D0D0A0042990A5445
:10F6E0004422BDF83000411C89B2CDE90B0142999A
:10F6F0000A543022BDF83000411C89B2CDE90B011B
:10F7000042990A540022BDF83000411C89B2CDE96B
:10F710000B0142990A540222BDF83000411C89B203
:10F72000CDE90B0142990A540122BDF83000411C79
:10F7300089B2CDE90B0142990A540022BDF830008C
:10F74000411C89B2CDE90B0142990A54BDF8300041
:10F75000411C89B2CDE90B0142990A54F94800686D
:10F76000401CF8490860002001F063FF00281FD00A
:10F77000AFF2A41016F002FDAFF2AC110DA816F016
:10F780000DFDBDF83010429808440CAA0DA90B904D
:10F79000FFF75DFE98210DA816F06FFABDF8301046
:10F7A000439801800620FCF72EFF022045B000BDE3
:10F7B000012002F04CFF34909DF8D000002820D1A9
:10F7C0009DF8D010E0A016F0D9FC9DF8D020DEA165
:10F7D0000DA816F0E3FCBDF83010429808440CAABE
:10F7E0000DA90B90FFF733FE98210DA816F045FAEE
:10F7F000BDF83010439801800320FCF704FF02207D
:10F80000D4E70121002002F045FA002002F011FAAD
:10F81000012002F00EFA00204190052002F046FB84
:10F8200041900DF020FD40903A994098401A0B907D
:10F830000146D4A0419A16F0A1FC3A994098401A8A
:10F840000B900246CFA10DA8419B16F0A7FCBDF876
:10F850003010429808440CAA0DA90B90FFF7F7FD51
:10F8600098210DA816F009FABDF8301043980180D0
:10F87000D349419888427DDA012142F2107002F0AA
:10F8800009FA002002F04CFA012002F0D2F90DF042
:10F89000EAFC409040983E9040983F9027E00DF061
:10F8A000E2FC4090DDE93F10401A642815D34098EF
:10F8B0003F9000204190052002F0F8FA41903A99DB
:10F8C0004098401A0B900146BEA0419A16F056FC93
:10F8D000BB494198884200DB10E00DF0E6FC0B903C
:10F8E0000DF0DBFC03220A900B9903F0EEF83E9931
:10F8F0004098401A43F698218842D0D900BF012190
:10F90000002002F0C7F9002002F093F9012002F074
:10F9100090F93A994098401A0B900146B7A0419A45
:10F9200016F02CFC3A994098401A0B900246C249B6
:10F930000DA8419B16F032FCBDF8301042980844E7
:10F940000CAA0DA90B90FFF782FD98210DA816F0C7
:10F9500094F9BDF830104398018043F69822DDE910
:10F960003F101144884254D90DF07DFC40903A99E3
:10F97000409800E026E0401A0B900146AFA0419A63
:10F9800016F0FCFB3A994098401A0B900246ABA146
:10F990000DA8419B16F002FCBDF8301042980844B7
:10F9A0000CAA0DA90B90FFF752FD98210DA816F097
:10F9B00064F9BDF83010439801800220FCF723FE63
:10F9C0000220F3E60DF04FFC40903A994098401A1F
:10F9D0000B900146A8A0419A16F0D0FB3A994098A6
:10F9E000401A0B900246A4A10DA8419B16F0D6FB2D
:10F9F000BDF83010429808440CAA0DA90B90FFF7EF
:10FA000026FD98210DA816F038F9BDF8301043985E
:10FA10000180012002F01BFE00281FD10DF023FC05
:10FA20004090A3A016F0AAFBA1A10DA816F0B6FB6A
:10FA3000BDF83010429808440CAA0DA90B90FFF7AE
:10FA400006FD98210DA816F018F9BDF8301043985E
:10FA500001800320FCF7D7FD0220A7E6012100204A
:10FA600002F018F9002002F0E4F8012002F058F941
:10FA700000200DF015FC0DF0F6FB409040983E90F4
:10FA800002F0B9FD0B90FCF7BBFD0A90052002F0D7
:10FA90000DFA09900DF001FC0890DDE90A01CDE9AD
:10FAA000000165485030DDE908133B9A16F066FB0B
:10FAB00002F0A1FD0B90FCF7A3FD0A90052002F0D7
:10FAC000F5F909900DF0E9FB0890DDE909120B98B2
:10FAD000CDE9001202905849A8310DA83B9B089A25
:10FAE00016F05CFBBDF83010429808440CAA0DA932
:10FAF0000B90FFF7ACFC98210DA816F0BEF8BDF8EE
:10FB00003010439801800DF0AEFB409040983E903D
:10FB100040983D9000203B90339073A016F02EFB50
:10FB200071A10DA816F03AFBBDF8301042980844B8
:10FB30000CAA0DA90B90FFF78AFCBDF83010439872
:10FB4000018003E22C000020436F756E7420457223
:10FB5000726F723A2074686520454C454354524F89
:10FB60004445206572726F72203D202564286265CD
:10FB7000666F7265206275696C642070726573735C
:10FB8000290D0A00436F756E742053746174757388
:10FB90003A206265666F7265206275696C642070D8
:10FBA000726573732C207469636B733D2530386400
:10FBB0002C2070726573733D25303130640D0A005E
:10FBC0008085B50D436F756E7420537461747573C1
:10FBD000286275696C64696E672070726573732939
:10FBE0003A207469636B733D253038642C20707241
:10FBF0006573733D25303130640D0A00436F756EB7
:10FC00007420537461747573286166746572206220
:10FC100075696C64207072657373293A2074696326
:10FC20006B733D253038642C2070726573733D25ED
:10FC3000303130640D0A0000E46B0208436F756ECA
:10FC400074204572726F723A206275696C6420701C
:10FC5000726573732074696D656F75742C74696354
:10FC60006B733D253038642C2070726573733D25AD
:10FC7000303130640D0A0000436F756E7420537488
:10FC80006174757328707265737320656E6F756724
:10FC900068293A207469636B733D253038642C20E1
:10FCA00070726573733D25303130640D0A000000B9
:10FCB000436F756E74204572726F723A2074686576
:10FCC00020454C454354524F4445206572726F7233
:10FCD000286166746572206275696C642070726553
:10FCE0007373290D0A0000005742435F563A200003
:10FCF0003D994098401AC8282ED340983D9002F074
:10FD00007AFC3890AFF2A060389916F037FA3D9837
:10FD1000C83041F294123E991144884205D9FEA19F
:10FD20000DA8389A16F03AFA05E0AFF2C4610DA8B2
:10FD3000389A16F033FABDF83010429808440CAAED
:10FD40000DA90B90FFF783FB98210DA815F095FFE7
:10FD5000BDF8301043980180012002F078FCE8BB28
:10FD6000FCF74EFC0B90052002F0A0F80A900DF075
:10FD700094FA0990E9480068E9490968CDE900105A
:10FD8000E84809A90EC916F0F9F9FCF739FC0B90FF
:10FD9000052002F08BF80A900DF07FFA0990DF48F9
:10FDA0000168DF4802680B98CDE901210090DD4928
:10FDB0000DA8DDE9092316F0F1F9BDF830104298DD
:10FDC00008440CAA0DA90B90FFF741FB98210DA840
:10FDD00015F053FFBDF83010439800E005E00180B6
:10FDE0000320FCF710FC0220E0E4002041900520F5
:10FDF00002F05CF84190CC49419888423DDCFCF728
:10FE0000FFFB0B900DF049FA0A90C4480068C44902
:10FE10000968CDE90010C3485830DDE90A13419A5A
:10FE200016F0ACF9FCF7ECFB0B900DF036FA0A90EB
:10FE3000BA480168BA4802680B98CDE901210090E0
:10FE4000B849AC310DA8419B0A9A16F0A7F9BDF844
:10FE50003010429808440CAA0DA90B90FFF7F7FA4E
:10FE600098210DA815F009FFBDF8301043980180C6
:10FE70000720FCF7C8FB022098E40DF016FA0B905F
:10FE80000DF00BFA03220A900B9902F01EFE0DF002
:10FE9000EAF940903E994098401A3B9040F2DC517C
:10FEA0003B98884252D89DF8CC00E8BB084602F047
:10FEB000B6FBC8BB0120339002F09DFB0B90FCF712
:10FEC0009FFB0A90052001F0F1FF09900DF0E5F984
:10FED00008903B9ADDE90A10CDE9001202909348A0
:10FEE000DDE9081316F04AF902F085FB0B90FCF7E8
:10FEF00087FB0A90052001F0D9FF09900DF0CDF99C
:10FF000008903B9BDDE909120B988DE80E000390E9
:10FF1000864970310DA8089A16F040F9BDF83010E6
:10FF2000429808440CAA00E010E00DA90B90FFF7DE
:10FF30008EFA98210DA815F0A0FEBDF83010439858
:10FF400001800A20FCF75FFB02202FE43E994098D5
:10FF5000401A41F2941188427FF6CAAE02F04BFB80
:10FF60000B90FCF74DFB0A90052001F09FFF0990D4
:10FF70000DF093F908903B9ADDE90A10CDE90012E3
:10FF800002906A48E030DDE9081316F0F7F802F055
:10FF900032FB0B90FCF734FB0A90052001F086FF42
:10FFA00009900DF07AF908903B9BDDE909120B9856
:10FFB0008DE80E0003905E490DA8089A16F0EEF841
:10FFC000BDF83010429808440CAA0DA90B90FFF719
:10FFD0003EFA98210DA815F050FEBDF83010439858
:10FFE000018040F6FC0002F01AFB002861D00520D9
:10FFF00001F05CFF0B9002F0FEFA0A90012002F083
:020000040801F1
:1000000091FC0990FCF7FCFA08900DF046F9079076
:10001000424BDDE909210B981B68CDE90032CDE99F
:1000200002103F48036842486430DDE9071216F0C9
:10003000A5F8052001F03AFF0B9002F0DCFA0A90D7
:10004000012002F06FFC0990FCF7DAFA08900DF03D
:1000500024F90790314BDDE909210B981B68CDE9A4
:100060000132CDE903102E48006800903049C831B4
:100070000DA8DDE9072316F091F8BDF8301042987D
:1000800008440CAA0DA90B90FFF7E1F9BDF8301058
:10009000439801800920FCF7B6FA0DF006F90B90A1
:1000A0000DF0FBF803220A900B9902F00EFD0220DE
:1000B00087E44FF4FA6002F0B2FA002871D005200C
:1000C00001F0F4FE0B9002F096FA0A90012002F083
:1000D00029FC0990FCF794FA08900DF0DEF80790DF
:1000E0000E4BDDE909210B981B68CDE90032CDE903
:1000F00002100B4803680F48DDE9071216F03EF8BE
:10010000052001F0D3FE0B9002F075FA0A90012051
:1001100002F008FC09900FE0256400003800002080
:1001200034000020E46C0208003B5808E46D02082B
:10013000286F020860700208FCF762FA08900DF060
:10014000ACF80790FE4BDDE909210B981B68CDE95F
:100150000132CDE90310FB4800680090FA490DA870
:10016000DDE9072316F01AF8BDF83010429808446C
:100170000CAA0DA90B90FFF76AF9BDF8301043984F
:1001800001800820FCF73FFA0DF08FF80B900DF07E
:1001900084F803220A900B9902F097FC022010E4E5
:1001A000FFE7012001F045FD0DF05DF8409040981B
:1001B0003E9002F020FA0B90FCF722FA0A900520FC
:1001C00001F074FE09900DF068F808900B9800900B
:1001D000DD485C3008A90EC915F0D0FF02F00BFA1B
:1001E0000B90FCF70DFA0A90052001F05FFE0990D4
:1001F0000DF053F80890DDE90A01CDE90001D2497C
:10020000A4310DA8DDE9082315F0C8FFBDF83010B2
:10021000429808440CAA0DA90B90FFF718F99821F1
:100220000DA815F02AFDBDF83010439801809EE01E
:100230000DF019F840900DF038F80B900DF02DF8F6
:1002400003220A900B9902F040FC012002F0FFF912
:10025000F0BB02F0D0F90B90FCF7D2F90A90052020
:1002600001F024FE09900DF018F808900B9800900A
:10027000B548EC3008A90EC915F080FF02F0BBF9B3
:100280000B90FCF7BDF90A90052001F00FFE0990D4
:100290000DF003F80890DDE90A01CDE90001AA4953
:1002A000EC310DA8DDE9082315F078FFBDF830101A
:1002B000429808440CAA0DA90B90FFF7C8F89821A2
:1002C0000DA815F0DAFCBDF830104398018056E017
:1002D000FFE700204190052001F0E8FD41909B4997
:1002E0004198884239DC02F086F90B90FCF788F9D6
:1002F0000A900CF0D2FF09900B9800909448DDE929
:100300000913419A15F03AFF02F075F90B90FCF7CA
:1003100077F90A900CF0C1FF0990DDE90A01CDE9F7
:1003200000018B490DA8419B099A15F037FFBDF8D4
:100330003010429808440CAA0DA90B90FFF787F8DB
:1003400098210DA815F099FCBDF830104398018054
:100350000720FCF758F9022046E50CF0A6FF0B90A9
:100360000CF09BFF03220A900B9902F0AEFB3E9922
:100370004098401A40F6B83188427FF659AF00BF26
:1003800002F039F90B90FCF73BF90A90052001F0D7
:100390008DFD09900CF081FF08900B9800906C483F
:1003A000543008A90EC915F0E9FE02F024F90B90AB
:1003B000FCF726F90A90052001F078FD09900CF071
:1003C0006CFF0890DDE90A01CDE900016049543174
:1003D0000DA8DDE9082315F0E1FEBDF830104298C4
:1003E00008440CAA0DA90B90FFF731F898210DA82D
:1003F00015F043FCBDF830104398018000200CF04C
:1004000057FF00204F49086002F0F5F80B90FCF709
:10041000F7F80A90052001F049FD09900CF045FF1E
:1004200008900CF03AFF079045490B980A68454937
:100430000B680A99CDE90132009103904448983045
:1004400007A90EC915F09AFE02F0D5F80B90FCF73B
:10045000D7F80A90052001F029FD09900CF025FF3E
:1004600008900CF01AFF079035490B980A68354937
:100470000B680A99CDE90232019104900998009025
:10048000334998310DA8DDE9072315F087FEBDF843
:100490003010429808440CAA0DA90B90FEF7D7FF24
:1004A00098210DA815F0E9FBBDF8301043980180A4
:1004B000012001F035FC00200CF0FAFE3B980CF016
:1004C000EFFE0CF0D0FE409040983F9040983E9058
:1004D00040983D90012001F023FC0CF0E6FE0B90CB
:1004E0000CF0DBFE03220A900B9902F0EEFA44981E
:1004F00002F0FBF826E10CF0D8FE0B900CF0CDFEDC
:1005000002220A900B9902F0E0FA3D994098401AB5
:10051000B0F5FA7F27D302F06EF83890AFF6B860E6
:10052000389915F02BFEAFF6C0610DA8389A15F07A
:1005300035FEBDF83010429808440CAA0DA909E018
:10054000380000203400002060700208003B58088A
:10055000A47102080B90FEF77AFFBDF830104398A3
:10056000018040983D90012002F071F834909DF890
:10057000D000E0BB02F05CFA02F01AFB052001F0AB
:1005800095FC0B9002F037F80A90FCF739F80990C7
:100590000CF08BFE08900CF080FE07909DF8D020A8
:1005A000DDE90A10FE4B1B68CDE90132CDE90310ED
:1005B000FC4800680090FC4807A90EC915F0DEFD54
:1005C000052001F073FC0B9002F015F80A90FCF77F
:1005D00017F809900CF069FE08900CF05EFE079089
:1005E0009DF8D020DDE90A01ED4B1B6800E020E01A
:1005F000CDE90232CDE90401EA4801680998CDE964
:100600000001E9490DA8DDE9072315F0C7FDBDF894
:100610003010429808440CAA0DA90B90FEF717FF62
:1006200098210DA815F029FBBDF8301043980180E2
:1006300090E000204190032001F038FC4190DB491C
:10064000419888427BDC02F0F3F902F0B1FA07200E
:10065000FBF7D9FF01F0CFFF0B90012002F062F908
:100660000A90FBF7CDFF09900CF01FFE08900CF0EC
:1006700014FE0790CA4B419ADDE90A101B68CDE9C8
:100680000131CDE90302C74800680090C6486C30CC
:1006900007A90EC915F072FD01F0ADFF0B90012006
:1006A00002F040F90A90FBF7ABFF09900CF0FDFD5A
:1006B00008900CF0F2FD0790B94B419ADDE90A1061
:1006C0001B68CDE90231CDE90402B64801680998FA
:1006D000CDE90001B4496C310DA8DDE9072315F01F
:1006E0005DFDBDF83010429808440CAA0DA90B908E
:1006F000FEF7ADFE98210DA815F0BFFABDF8301039
:10070000439801800CF0C9FD0B90FBF779FF0A902C
:10071000BDF83010A24A0B981268CDE90020029172
:10072000A3480068401E09909E4803689E48DC303C
:10073000DDE9091215F022FD022006E4FFE70CF0C6
:1007400092FD409045F6C052DDE93F1011448842C9
:100750007FF6D1AE00BF449801F0D9FF02F028FA2D
:100760000121002001F096FA002001F062FA012038
:1007700001F05FFA0CF091FD3D900CF096FD3E907B
:10078000012001F064FF3490052001F08FFB0B90F5
:1007900001F031FF0A90FBF733FF09909DF8D0205C
:1007A000DDE90A107E4B1B68CDE90132CDE903106B
:1007B0007C48006800907F48099BDDE93D1215F0F8
:1007C000DDFC052001F072FB0B9001F014FF0A9094
:1007D000FBF716FF09909DF8D020DDE90A01704B68
:1007E0001B68CDE90232CDE904016E480168099821
:1007F000CDE900016F496C310DA8DDE93D2315F00D
:10080000CDFCBDF83010429808440CAA0DA90B90FD
:10081000FEF71DFE98210DA815F02FFABDF8301037
:100820004398018045F6C052DDE93F1011448842EB
:100830007DD90CF018FD4090052001F037FB0B909E
:1008400001F0D9FE0A90012002F06CF80990FBF744
:10085000D7FE0890524BDDE909210B981B68CDE9C2
:100860000132CDE903104F48006800905148D8305C
:10087000089BDDE93D1215F081FC052001F016FB17
:100880000B9001F0B8FE0A90012002F04BF809909D
:10089000FBF7B6FE0890424BDDE909210B981B6877
:1008A000CDE90232CDE904103E4801680898CDE94F
:1008B00000014049D8310DA8DDE93D2315F06EFC5B
:1008C000BDF83010429808440CAA0DA90B90FEF711
:1008D000BEFD98210DA815F0D0F9BDF83010439851
:1008E00001800120FBF78FFE0CF0D7FC0B90BDF8C8
:1008F0003010CDE900012E480068401E0A902948BA
:1009000003682D490DA80A9A15F048FCBDF830106F
:10091000429808440CAA0DA90B90FEF798FDBDF86B
:100920003010439801800CF0B8FC0B9000E018E008
:10093000FBF766FE0A90BDF83010194A0B98126852
:10094000CDE9002002911A480068401E0990154820
:10095000036818485C38DDE9091215F00FFC022025
:100960001DE40020FBF74FFE0CF097FC0B90FBF70B
:1009700047FE0A90BDF83010094A0B981268CDE97D
:10098000002002910A480068401E0990054803684B
:1009900008485C38DDE9091215F0F0FB0020DBE4C3
:1009A0003800002034000020A8720208003B5808DC
:1009B0002C000020E0730208207502082DE9FF5F7B
:1009C00004460D464FF00009CB46C8460020039070
:1009D0008246029000260027019094F80390E37964
:1009E000A2796179207900F0E9FB8046E0780090F7
:1009F000A37862782178FE4815F0C0FBE07900907A
:100A0000A37962792179FA48243015F0B7FBE07AAE
:100A10000090A37A627A217AF548383015F0AEFB5F
:100A2000B9F1570F71D140F20351A8EB010088458D
:100A30006ED03ADC40F20511A8EB010088457CD06D
:100A40001ADC40F20111A8EB0100884576D00CDCDD
:100A5000B8F1000F73D0B8F1010F71D0B8F1020FE7
:100A60006FD0B8F5807F6DD117E101286BD00228D7
:100A70006AD00328F7D120E140F2FB22811A90428C
:100A80007AD008DC012878D0FB2877D0A0F58070D8
:100A9000FB38E8D132E1B1F5807F70D0A1F58071EB
:100AA000013937D00129DED131E0B0F5007F67D0C0
:100AB00014DCFE2870D008DC01282AD0022868D077
:100AC00003286BD0FD28CED126E1A0F58070FD383B
:100AD00072D0012871D00228C5D1BCE0B0F5017FE9
:100AE0006CD008DCA0F50070013868D0012867D010
:100AF0000228B8D1BCE0A0F50070053871D00128FB
:100B000070D0B0F5807FAED123E13CE100E000BFC2
:100B100000BF00BF94F807B040F201585A4603A93D
:100B20002846FEF7B8FC90B10121002001F0B2F890
:100B3000002001F07EF8012007E0C1E0B1E035E0DF
:100B400043E02EE01DE1B4E0AFE001F072F8BDF843
:100B50000C000A38000A2872BDF80C000A386872C6
:100B6000BDF80C10284614F0E9FF012801D10CF063
:100B70006BFBBDF80C1004E0C4E0A4E050E0C2E060
:100B80006CE09CA015F0FAFA00200390FBF7EBFF55
:100B9000F8E0FEF7F7FBF5E025E0FFE7FEF775FB71
:100BA000F0E0617A207AFEF756FBEBE0607A40B91C
:100BB000207A01F03EF807E0C3E0C6E05BE050E0D9
:100BC00053E0207A01F0ACF8DCE0E37AA27A617AB3
:100BD000207A00F0F3FA06460121304601F05AF877
:100BE000D0E04EE04AE0617A207A00F0DBFA074676
:100BF00085487843854988604AF6CD3008800846A4
:100C00003946826882A015F0B9FA10217F4802F0B7
:100C1000F9FA002240F201110120FBF764FDB1E076
:100C2000617A207A01F043FB207A98B9607A77499B
:100C300088704AF6CD300880084681787CA015F08F
:100C40009DFA1021714802F0DDFA002210210120E6
:100C5000FBF749FD96E0FEF7DAFA93E0FCF71BFE9E
:100C600090E00120FCF742FF8CE0FEF7B2FA89E049
:100C7000FEF798FA86E0FEF77EFA83E0FEF777F952
:100C800080E0237BE27AA17A607A00F097FA064648
:100C9000207A3146FEF732F974E0002000F0D6FDEC
:100CA00070E0002001F056F96CE0002000F0E8FE52
:100CB00068E0002000F027FD64E000F087FE61E0BE
:100CC00001F069FA5EE0617A207A00F071FA029030
:100CD000BDF808004D4988804AF6CD3008800846A6
:100CE000818858A015F04AFA1021484802F08AFA83
:100CF000002207210120FBF7F6FC43E0207A01F0F7
:100D000077FE3FE03EE04FF4A0684FF0010AFCF7A9
:100D100028F80020039035E0E37AA27A617A207AFD
:100D200000F04CFA0646E37BA27B617B207B00F05F
:100D300045FA01903046019901F072FD00200390C0
:100D400020E00120FBF7E2FF1CE00120FBF7B9FFE8
:100D500018E0617A207A00F02BFA0290637B227B04
:100D6000E17AA07A00F02AFA06463246BDF8081069
:100D70003AA015F003FA3146BDF80800FBF72DFF45
:100D800000E000BF00BFB9F1520F79D1B8F1060FF2
:100D900077D007DCB8F1050F74D2DFE808F01776DA
:100DA00089A0FC00B8F5807F6DD006DCB8F1070F94
:100DB0006AD0B8F1080F65D1B8E0A8F580700138A5
:100DC00075D06FF000514018F5D107E14FF00008E1
:100DD0004FF0010A032001F00DFB0290BDF808005E
:100DE000000A2870BDF8080068700220039024E112
:100DF00024CF00086465627567206D7367206C6599
:100E00006E3A2025640D0A0040420F00D0180020E1
:100E1000536574206164643D25642C2061646470B2
:100E2000726573733D25303130640D0A0000000097
:100E3000536574205742432056616C75653D2564A7
:100E40000D0A0000536574204D6F746F20582041C7
:100E50006464205374657025640D0A0053656E64E4
:100E6000205061636B657420546573743A20746913
:100E70006D653D25642C206E756D3D25640D0A0061
:100E8000DCE041E0D8E06FE0C8E04FF00108C24686
:100E9000002001F0CCFC2870012001F0C8FC687033
:100EA000022001F0C4FCA87003200390C5E04AE0D2
:100EB0004FF002084FF0010A002000F0BAFB287042
:100EC000012000F0B6FB6870022000F0B2FBA870B1
:100ED000032000F0AEFBE87004200390ADE04FF07B
:100EE00003084FF0010A322028703020687020215A
:100EF000A81C14F0C2FE80480168C5F80210808862
:100F0000E8802220039098E04FF0010A4FF0060895
:100F100001F0B9F980B20290BDF808000012287003
:100F2000BDF8080068700220039086E0734881785D
:100F300073A015F023F97148807842B276490320F6
:100F4000FBF7D1FB79E06D488068744990FBF1F0C4
:100F500007B2394672A015F011F93A466E49F931D7
:100F60000320FBF725FC68E04FF480784FF0010A7E
:100F7000052000F09BFF0646300E2870300C68708C
:100F8000300AA870EE706C48B6FBF0F66420B6FB31
:100F9000F0F00A2100E02DE0B0FBF1F201FB1200BD
:100FA0004FF47A71B6FBF1F10A22B1FBF2F302FBC6
:100FB000131140EA011028710A20B6FBF0F100FB82
:100FC00011600A21B6FBF1F1B1FBF2F302FB131140
:100FD00040EA01106871062003902EE0DFF83881A6
:100FE00008F1FA084FF0010A5448007828700120EF
:100FF000039022E04FF0010A4FF00408207A28B94C
:101000000020287000F05BFB687004E0012028706D
:1010100000F06BFB6870022003900EE03748818877
:1010200047A015F0ABF83548808802B23A49491E0E
:101030000320FBF7BDFB00E000BF00BFFBF7C2FAD7
:1010400001280BD102A92846FBF76CFABDF808303D
:101050002A464146532000F0F9F909E0BAF1010FA0
:1010600006D1BDF80C302A464146532000F0EEF977
:10107000002004B0BDE8F09F70B5012142F210706D
:1010800000F008FE002000F04BFE012000F0D1FD32
:101090000CF0E9F805462E4614E00CF0E4F806469C
:1010A000052000F003FF04462C4884420ADB01219E
:1010B000002000F0EFFD002000F0BBFD012000F05B
:1010C000B8FD04E0701B43F698218842E5D900BFC3
:1010D000701B43F6982188420BD90121002000F0B3
:1010E000D9FD002000F0A5FD012000F0A2FD0120A7
:1010F00070BD0020FCE70000EC660208D01800205C
:101100005175657279205742432056616C75653D73
:1011100025640D0A000000000800003040420F0066
:101120005175657279204164642050726573733D16
:1011300025640D0A00000000A08601003C0000208C
:101140005175657279204D6F746F20582041646429
:1011500020537465703D25640D0A00008085B50D2F
:101160000020F8490870704710B50CF0DFFC0CF057
:10117000C7FD0CF0B7FE0CF09FFFFFF7F1FF00205A
:1011800010BD30B503460C460021002500BF04E029
:10119000585C2844C5B2481C81B2A142F8DB1570E6
:1011A000002030BD0246002001EB022318B2704738
:1011B0000246002001EB022398B2704730B5044686
:1011C0000020250605EB014505EB0225E81830BD9A
:1011D0001CB54520019000200090002240F22661BD
:1011E000D9480BF06AFB8021D7480BF0F7FB08B118
:1011F000012000E0002001280BD101A80CF0B8FC70
:1012000000909DF8000020B99DF80410CE480AF027
:10121000FCFF012240F22661CB480BF04EFB9DF80B
:1012200000001CBD38B504460020009020460CF09C
:1012300084FC00909DF8000010B9FFF7C9FF0090F2
:101240009DF8000038BD38B504460D4600200090DA
:10125000294620460CF0F6FC00909DF8000010B9DD
:10126000FFF7B6FF00909DF8000038BD1CB504469E
:101270000020019000900EE0BDF80010605C0CF0C2
:101280005CFC0190BDF80000401C80B200909DF80D
:10129000040000B104E0BDF80000205C0028EBD1A0
:1012A00000BF9DF8040010B9FFF792FF01909DF870
:1012B00004001CBD2DE9FF4107463E4600240CE01A
:1012C0000A20B6FBF0F100FB116030300DF804008D
:1012D0000A20B6FBF0F6601CC4B2002EF0D100204C
:1012E0000DF8040000250DE01DF80580601E401B70
:1012F0001DF800000DF80500601E401B0DF8008071
:10130000681CC5B204EBD471B5EB610FECDB684629
:10131000FFF7ACFF002004B0BDE8F0811CB545200C
:10132000019000200090202187480BF057FB08B166
:10133000012000E0002001281BD1202182480BF071
:10134000B1FB002240F225517F480BF0B6FA7E48EF
:101350000AF091FFC0B201909DF804000CF0D7FC98
:1013600000909DF80000012240F2255176480BF0D4
:10137000A4FA402174480BF031FB08B1012000E0D1
:101380000020012825D140216F480BF08BFB002263
:1013900040F226616C480BF090FA80216A480BF00D
:1013A0001DFB08B1012000E0002001280BD101A89D
:1013B0000CF0DEFB00909DF8000020B99DF80410B1
:1013C00061480AF022FF012240F226615E480BF0DC
:1013D00074FA1CBD38B504460020009020460CF07D
:1013E00088FD00909DF800009DF8000038BD38B5DC
:1013F00004460D4600200090294620460CF0FEFDD4
:1014000000909DF800009DF8000038BD1CB5044612
:101410000020019000900EE0BDF80010605C0CF020
:1014200068FD0190BDF80000401C80B200909DF85E
:10143000040000B104E0BDF80000205C0028EBD1FE
:1014400000BF9DF804009DF804001CBD2DE9F04785
:1014500080460C4691461E46002501203B490870F7
:1014600044203B4908705320487057208870084634
:1014700080F80380200E0871200C4871200A8871C2
:10148000CC7100BF07E019F8051005F10800304ADB
:101490001154681C85B2B542F5DB06F1080081B233
:1014A0002B4814F04BFB074617B12AA0FFF7DEFECE
:1014B000002026490870BDE8F08770B504460D4647
:1014C0000120224908702A462146214814F0BCFB1D
:1014D0001F4814F0DDFB86B231461D4814F02EFB88
:1014E00000201A49087070BD70B50446002501201F
:1014F00016490870220E29466D1C15484254C4F343
:10150000074229466D1C4254C4F3072229466D1C2C
:10151000425429466D1C4454294614F00FFB002008
:101520000A49087070BD3EB50446002005490870A0
:101530000CF009FE0090BDF8000008281ADA0CF043
:10154000BBFD3EBD3E000020001001403D000020DC
:10155000EC0500202A2A2A204672616D652062610E
:10156000636B206572726F722021202A2A2A0D0A6D
:1015700000000000BDF80000C82802DB0CF09CFD54
:101580003EBD002001900CE002A80CF0B7FD9DF8D4
:101590000800BDF804106054BDF80400401C80B27F
:1015A0000190BDF80400BDF800108842ECDB207803
:1015B000432805D16078422802D1A078572802D06C
:1015C0000CF07AFDDCE7E078572805D0E078522867
:1015D00002D00CF071FDD3E70120064908700CF031
:1015E0006BFD00BFCCE704480078704701480078E5
:1015F000704700003E0000203D00002008B501209B
:1016000032234FF4FA525110009000200CF098F859
:101610000A2064234FF4FA525110009001200CF07C
:101620008FF800200CF0C4F901200CF0C1F9002063
:1016300008BD3EB5044600200290012000900C2019
:101640000290012201A802990BF023FD34B1012C74
:101650000FD0022C18D0032C2CD120E0BDF80400B0
:1016600010F0010F02D00120009001E00020009056
:1016700021E0BDF8040010F0020F02D0012000901C
:1016800001E00020009016E0BDF8040010F0040F07
:1016900002D00120009001E0002000900BE0BDF896
:1016A000040010F0080F02D00120009001E000209B
:1016B000009000E000BF00BF9DF800003EBD10B5E7
:1016C000FE48007870B90020FFF7B3FF18B9012079
:1016D000FA49087006E00120FFF7ABFF10B90220BD
:1016E000F6490870F548007810BD10B5F348407809
:1016F00030B90220FFF79DFF10B90120EF49487073
:10170000EE48407810BD10B586B0044624B90022DA
:1017100011460120FBF78DF9E94800690290E8487D
:1017200040690390E64880690490E548C0690590E7
:101730000220FFF77EFF01283AD10A2064234FF4EC
:10174000FA525110009001200BF0FAFF002248F6E7
:10175000B80101200CF053F812E001200CF09FF9C1
:1017600001280DD10CF024F93CB90520FAF74BFF04
:10177000002202210120FBF75CF9022006B010BD17
:101780000220FFF756FF0128E7D000224FF4167120
:1017900001200CF034F800BF01200CF080F9002883
:1017A000FAD003200BF050FD01200CF001F938E0D5
:1017B0000A2064234FF4FA525110009001200BF0DC
:1017C000BFFF012244F6206110460CF018F811E02A
:1017D00001200CF064F901280CD10CF0E9F83CB9B7
:1017E0000520FAF710FF002202210120FBF721F962
:1017F0000220C3E70220FFF71CFF0028E8D00022E8
:101800004FF4167101200BF0FAFF00BF01200CF01D
:1018100046F90028FAD003200BF016FD01200CF049
:10182000C7F80020A549C8600120487005980090BD
:10183000049B039A029901200BF082FF24B9002235
:1018400001210846FBF7F5F8002097E710B586B0B0
:10185000044600200190FFF7ECFE012803D120464A
:10186000FFF751FF0AE04CB9002211460120FBF7B7
:10187000E0F8002201210846FBF7DBF824B900223A
:1018800011461046FBF7D5F88D48006802908C4849
